{
  "_format": "hh-sol-artifact-1",
  "contractName": "Factory",
  "sourceName": "contracts/Factory.sol",
  "abi": [
    {
      "inputs": [
        {
          "internalType": "uint256",
          "name": "_fee",
          "type": "uint256"
        }
      ],
      "stateMutability": "nonpayable",
      "type": "constructor"
    },
    {
      "anonymous": false,
      "inputs": [
        {
          "indexed": false,
          "internalType": "address",
          "name": "creatorAddress",
          "type": "address"
        },
        {
          "indexed": false,
          "internalType": "address",
          "name": "contractAddress",
          "type": "address"
        }
      ],
      "name": "ContractCreated",
      "type": "event"
    },
    {
      "anonymous": false,
      "inputs": [
        {
          "indexed": false,
          "internalType": "uint256",
          "name": "fee",
          "type": "uint256"
        }
      ],
      "name": "FeeUpdated",
      "type": "event"
    },
    {
      "anonymous": false,
      "inputs": [
        {
          "indexed": true,
          "internalType": "bytes32",
          "name": "role",
          "type": "bytes32"
        },
        {
          "indexed": true,
          "internalType": "bytes32",
          "name": "previousAdminRole",
          "type": "bytes32"
        },
        {
          "indexed": true,
          "internalType": "bytes32",
          "name": "newAdminRole",
          "type": "bytes32"
        }
      ],
      "name": "RoleAdminChanged",
      "type": "event"
    },
    {
      "anonymous": false,
      "inputs": [
        {
          "indexed": true,
          "internalType": "bytes32",
          "name": "role",
          "type": "bytes32"
        },
        {
          "indexed": true,
          "internalType": "address",
          "name": "account",
          "type": "address"
        },
        {
          "indexed": true,
          "internalType": "address",
          "name": "sender",
          "type": "address"
        }
      ],
      "name": "RoleGranted",
      "type": "event"
    },
    {
      "anonymous": false,
      "inputs": [
        {
          "indexed": true,
          "internalType": "bytes32",
          "name": "role",
          "type": "bytes32"
        },
        {
          "indexed": true,
          "internalType": "address",
          "name": "account",
          "type": "address"
        },
        {
          "indexed": true,
          "internalType": "address",
          "name": "sender",
          "type": "address"
        }
      ],
      "name": "RoleRevoked",
      "type": "event"
    },
    {
      "inputs": [],
      "name": "DEFAULT_ADMIN_ROLE",
      "outputs": [
        {
          "internalType": "bytes32",
          "name": "",
          "type": "bytes32"
        }
      ],
      "stateMutability": "view",
      "type": "function"
    },
    {
      "inputs": [],
      "name": "allInstances",
      "outputs": [
        {
          "internalType": "address[]",
          "name": "",
          "type": "address[]"
        }
      ],
      "stateMutability": "view",
      "type": "function"
    },
    {
      "inputs": [],
      "name": "createInstance",
      "outputs": [],
      "stateMutability": "payable",
      "type": "function"
    },
    {
      "inputs": [],
      "name": "fee",
      "outputs": [
        {
          "internalType": "uint256",
          "name": "",
          "type": "uint256"
        }
      ],
      "stateMutability": "view",
      "type": "function"
    },
    {
      "inputs": [
        {
          "internalType": "bytes32",
          "name": "role",
          "type": "bytes32"
        }
      ],
      "name": "getRoleAdmin",
      "outputs": [
        {
          "internalType": "bytes32",
          "name": "",
          "type": "bytes32"
        }
      ],
      "stateMutability": "view",
      "type": "function"
    },
    {
      "inputs": [
        {
          "internalType": "bytes32",
          "name": "role",
          "type": "bytes32"
        },
        {
          "internalType": "address",
          "name": "account",
          "type": "address"
        }
      ],
      "name": "grantRole",
      "outputs": [],
      "stateMutability": "nonpayable",
      "type": "function"
    },
    {
      "inputs": [
        {
          "internalType": "bytes32",
          "name": "role",
          "type": "bytes32"
        },
        {
          "internalType": "address",
          "name": "account",
          "type": "address"
        }
      ],
      "name": "hasRole",
      "outputs": [
        {
          "internalType": "bool",
          "name": "",
          "type": "bool"
        }
      ],
      "stateMutability": "view",
      "type": "function"
    },
    {
      "inputs": [],
      "name": "myInstances",
      "outputs": [
        {
          "internalType": "address[]",
          "name": "",
          "type": "address[]"
        }
      ],
      "stateMutability": "view",
      "type": "function"
    },
    {
      "inputs": [],
      "name": "nbInstances",
      "outputs": [
        {
          "internalType": "uint256",
          "name": "",
          "type": "uint256"
        }
      ],
      "stateMutability": "view",
      "type": "function"
    },
    {
      "inputs": [
        {
          "internalType": "bytes32",
          "name": "role",
          "type": "bytes32"
        },
        {
          "internalType": "address",
          "name": "account",
          "type": "address"
        }
      ],
      "name": "renounceRole",
      "outputs": [],
      "stateMutability": "nonpayable",
      "type": "function"
    },
    {
      "inputs": [
        {
          "internalType": "bytes32",
          "name": "role",
          "type": "bytes32"
        },
        {
          "internalType": "address",
          "name": "account",
          "type": "address"
        }
      ],
      "name": "revokeRole",
      "outputs": [],
      "stateMutability": "nonpayable",
      "type": "function"
    },
    {
      "inputs": [
        {
          "internalType": "uint256",
          "name": "_fee",
          "type": "uint256"
        }
      ],
      "name": "setFee",
      "outputs": [],
      "stateMutability": "nonpayable",
      "type": "function"
    },
    {
      "inputs": [
        {
          "internalType": "bytes4",
          "name": "interfaceId",
          "type": "bytes4"
        }
      ],
      "name": "supportsInterface",
      "outputs": [
        {
          "internalType": "bool",
          "name": "",
          "type": "bool"
        }
      ],
      "stateMutability": "view",
      "type": "function"
    }
  ],
  "bytecode": "0x60a06040523480156200001157600080fd5b50604051620033b7380380620033b783398181016040528101906200003791906200028f565b60008110156200004657600080fd5b806001819055506040516200005b9062000241565b604051809103906000f08015801562000078573d6000803e3d6000fd5b5073ffffffffffffffffffffffffffffffffffffffff1660808173ffffffffffffffffffffffffffffffffffffffff1681525050620000c16000801b33620000c860201b60201c565b50620002c1565b620000da8282620000de60201b60201c565b5050565b620000f08282620001cf60201b60201c565b620001cb57600160008084815260200190815260200160002060000160008373ffffffffffffffffffffffffffffffffffffffff1673ffffffffffffffffffffffffffffffffffffffff16815260200190815260200160002060006101000a81548160ff021916908315150217905550620001706200023960201b60201c565b73ffffffffffffffffffffffffffffffffffffffff168173ffffffffffffffffffffffffffffffffffffffff16837f2f8788117e7eff1d82e926ec794901d17c78024a50270940304540a733656f0d60405160405180910390a45b5050565b600080600084815260200190815260200160002060000160008373ffffffffffffffffffffffffffffffffffffffff1673ffffffffffffffffffffffffffffffffffffffff16815260200190815260200160002060009054906101000a900460ff16905092915050565b600033905090565b61167f8062001d3883390190565b600080fd5b6000819050919050565b620002698162000254565b81146200027557600080fd5b50565b60008151905062000289816200025e565b92915050565b600060208284031215620002a857620002a76200024f565b5b6000620002b88482850162000278565b91505092915050565b608051611a5b620002dd60003960006105780152611a5b6000f3fe6080604052600436106100c25760003560e01c806391d148541161007f578063d547741f11610059578063d547741f14610259578063ddca3f4314610282578063e6e8ae01146102ad578063fa60dd39146102d8576100c2565b806391d14854146101e7578063a217fddf14610224578063ad5014671461024f576100c2565b806301ffc9a7146100c7578063248a9ca3146101045780632f2ff15d1461014157806336568abe1461016a57806359726ade1461019357806369fe0e2d146101be575b600080fd5b3480156100d357600080fd5b506100ee60048036038101906100e991906110c4565b610303565b6040516100fb919061110c565b60405180910390f35b34801561011057600080fd5b5061012b6004803603810190610126919061115d565b61037d565b6040516101389190611199565b60405180910390f35b34801561014d57600080fd5b5061016860048036038101906101639190611212565b61039c565b005b34801561017657600080fd5b50610191600480360381019061018c9190611212565b6103c5565b005b34801561019f57600080fd5b506101a8610448565b6040516101b5919061126b565b60405180910390f35b3480156101ca57600080fd5b506101e560048036038101906101e091906112b2565b610455565b005b3480156101f357600080fd5b5061020e60048036038101906102099190611212565b6104bc565b60405161021b919061110c565b60405180910390f35b34801561023057600080fd5b50610239610526565b6040516102469190611199565b60405180910390f35b61025761052d565b005b34801561026557600080fd5b50610280600480360381019061027b9190611212565b6106a8565b005b34801561028e57600080fd5b506102976106d1565b6040516102a4919061126b565b60405180910390f35b3480156102b957600080fd5b506102c26106d7565b6040516102cf919061139d565b60405180910390f35b3480156102e457600080fd5b506102ed6109e2565b6040516102fa919061139d565b60405180910390f35b60007f7965db0b000000000000000000000000000000000000000000000000000000007bffffffffffffffffffffffffffffffffffffffffffffffffffffffff1916827bffffffffffffffffffffffffffffffffffffffffffffffffffffffff19161480610376575061037582610a86565b5b9050919050565b6000806000838152602001908152602001600020600101549050919050565b6103a58261037d565b6103b6816103b1610af0565b610af8565b6103c08383610b95565b505050565b6103cd610af0565b73ffffffffffffffffffffffffffffffffffffffff168173ffffffffffffffffffffffffffffffffffffffff161461043a576040517f08c379a000000000000000000000000000000000000000000000000000000000815260040161043190611442565b60405180910390fd5b6104448282610c75565b5050565b6000600280549050905090565b6000801b61046a81610465610af0565b610af8565b600082101561047857600080fd5b816001819055507f8c4d35e54a3f2ef1134138fd8ea3daee6a3c89e10d2665996babdf70261e2c766001546040516104b0919061126b565b60405180910390a15050565b600080600084815260200190815260200160002060000160008373ffffffffffffffffffffffffffffffffffffffff1673ffffffffffffffffffffffffffffffffffffffff16815260200190815260200160002060009054906101000a900460ff16905092915050565b6000801b81565b6001543414610571576040517f08c379a0000000000000000000000000000000000000000000000000000000008152600401610568906114ae565b60405180910390fd5b600061059c7f0000000000000000000000000000000000000000000000000000000000000000610d56565b90508073ffffffffffffffffffffffffffffffffffffffff1663c4d66de8336040518263ffffffff1660e01b81526004016105d791906114dd565b600060405180830381600087803b1580156105f157600080fd5b505af1158015610605573d6000803e3d6000fd5b505050506002819080600181540180825580915050600190039060005260206000200160009091909190916101000a81548173ffffffffffffffffffffffffffffffffffffffff021916908373ffffffffffffffffffffffffffffffffffffffff1602179055507f2d49c67975aadd2d389580b368cfff5b49965b0bd5da33c144922ce01e7a4d7b338260405161069d9291906114f8565b60405180910390a150565b6106b18261037d565b6106c2816106bd610af0565b610af8565b6106cc8383610c75565b505050565b60015481565b606060008060028054905067ffffffffffffffff8111156106fb576106fa611521565b5b6040519080825280602002602001820160405280156107295781602001602082028036833780820191505090505b50905060005b6002805490508110156109035760006002828154811061075257610751611550565b5b9060005260206000200160009054906101000a900473ffffffffffffffffffffffffffffffffffffffff16905060008190508073ffffffffffffffffffffffffffffffffffffffff166391d148548273ffffffffffffffffffffffffffffffffffffffff1663a217fddf6040518163ffffffff1660e01b815260040160206040518083038186803b1580156107e657600080fd5b505afa1580156107fa573d6000803e3d6000fd5b505050506040513d601f19601f8201168201806040525081019061081e9190611594565b336040518363ffffffff1660e01b815260040161083c9291906115c1565b60206040518083038186803b15801561085457600080fd5b505afa158015610868573d6000803e3d6000fd5b505050506040513d601f19601f8201168201806040525081019061088c9190611616565b156108ee57818486815181106108a5576108a4611550565b5b602002602001019073ffffffffffffffffffffffffffffffffffffffff16908173ffffffffffffffffffffffffffffffffffffffff168152505084806108ea90611672565b9550505b505080806108fb90611672565b91505061072f565b5060008267ffffffffffffffff8111156109205761091f611521565b5b60405190808252806020026020018201604052801561094e5781602001602082028036833780820191505090505b50905060005b81518110156109d8578281815181106109705761096f611550565b5b602002602001015182828151811061098b5761098a611550565b5b602002602001019073ffffffffffffffffffffffffffffffffffffffff16908173ffffffffffffffffffffffffffffffffffffffff168152505080806109d090611672565b915050610954565b5080935050505090565b60606000801b6109f9816109f4610af0565b610af8565b6002805480602002602001604051908101604052809291908181526020018280548015610a7b57602002820191906000526020600020905b8160009054906101000a900473ffffffffffffffffffffffffffffffffffffffff1673ffffffffffffffffffffffffffffffffffffffff1681526020019060010190808311610a31575b505050505091505090565b60007f01ffc9a7000000000000000000000000000000000000000000000000000000007bffffffffffffffffffffffffffffffffffffffffffffffffffffffff1916827bffffffffffffffffffffffffffffffffffffffffffffffffffffffff1916149050919050565b600033905090565b610b0282826104bc565b610b9157610b278173ffffffffffffffffffffffffffffffffffffffff166014610e2b565b610b358360001c6020610e2b565b604051602001610b469291906117cd565b6040516020818303038152906040526040517f08c379a0000000000000000000000000000000000000000000000000000000008152600401610b889190611851565b60405180910390fd5b5050565b610b9f82826104bc565b610c7157600160008084815260200190815260200160002060000160008373ffffffffffffffffffffffffffffffffffffffff1673ffffffffffffffffffffffffffffffffffffffff16815260200190815260200160002060006101000a81548160ff021916908315150217905550610c16610af0565b73ffffffffffffffffffffffffffffffffffffffff168173ffffffffffffffffffffffffffffffffffffffff16837f2f8788117e7eff1d82e926ec794901d17c78024a50270940304540a733656f0d60405160405180910390a45b5050565b610c7f82826104bc565b15610d5257600080600084815260200190815260200160002060000160008373ffffffffffffffffffffffffffffffffffffffff1673ffffffffffffffffffffffffffffffffffffffff16815260200190815260200160002060006101000a81548160ff021916908315150217905550610cf7610af0565b73ffffffffffffffffffffffffffffffffffffffff168173ffffffffffffffffffffffffffffffffffffffff16837ff6391f5c32d9c69d2a47ea670b442974b53935d1edc7fd64eb21e047a839171b60405160405180910390a45b5050565b60006040517f3d602d80600a3d3981f3363d3d373d3d3d363d7300000000000000000000000081528260601b60148201527f5af43d82803e903d91602b57fd5bf3000000000000000000000000000000000060288201526037816000f0915050600073ffffffffffffffffffffffffffffffffffffffff168173ffffffffffffffffffffffffffffffffffffffff161415610e26576040517f08c379a0000000000000000000000000000000000000000000000000000000008152600401610e1d906118bf565b60405180910390fd5b919050565b606060006002836002610e3e91906118df565b610e489190611939565b67ffffffffffffffff811115610e6157610e60611521565b5b6040519080825280601f01601f191660200182016040528015610e935781602001600182028036833780820191505090505b5090507f300000000000000000000000000000000000000000000000000000000000000081600081518110610ecb57610eca611550565b5b60200101907effffffffffffffffffffffffffffffffffffffffffffffffffffffffffffff1916908160001a9053507f780000000000000000000000000000000000000000000000000000000000000081600181518110610f2f57610f2e611550565b5b60200101907effffffffffffffffffffffffffffffffffffffffffffffffffffffffffffff1916908160001a90535060006001846002610f6f91906118df565b610f799190611939565b90505b6001811115611019577f3031323334353637383961626364656600000000000000000000000000000000600f861660108110610fbb57610fba611550565b5b1a60f81b828281518110610fd257610fd1611550565b5b60200101907effffffffffffffffffffffffffffffffffffffffffffffffffffffffffffff1916908160001a905350600485901c9450806110129061198f565b9050610f7c565b506000841461105d576040517f08c379a000000000000000000000000000000000000000000000000000000000815260040161105490611a05565b60405180910390fd5b8091505092915050565b600080fd5b60007fffffffff0000000000000000000000000000000000000000000000000000000082169050919050565b6110a18161106c565b81146110ac57600080fd5b50565b6000813590506110be81611098565b92915050565b6000602082840312156110da576110d9611067565b5b60006110e8848285016110af565b91505092915050565b60008115159050919050565b611106816110f1565b82525050565b600060208201905061112160008301846110fd565b92915050565b6000819050919050565b61113a81611127565b811461114557600080fd5b50565b60008135905061115781611131565b92915050565b60006020828403121561117357611172611067565b5b600061118184828501611148565b91505092915050565b61119381611127565b82525050565b60006020820190506111ae600083018461118a565b92915050565b600073ffffffffffffffffffffffffffffffffffffffff82169050919050565b60006111df826111b4565b9050919050565b6111ef816111d4565b81146111fa57600080fd5b50565b60008135905061120c816111e6565b92915050565b6000806040838503121561122957611228611067565b5b600061123785828601611148565b9250506020611248858286016111fd565b9150509250929050565b6000819050919050565b61126581611252565b82525050565b6000602082019050611280600083018461125c565b92915050565b61128f81611252565b811461129a57600080fd5b50565b6000813590506112ac81611286565b92915050565b6000602082840312156112c8576112c7611067565b5b60006112d68482850161129d565b91505092915050565b600081519050919050565b600082825260208201905092915050565b6000819050602082019050919050565b611314816111d4565b82525050565b6000611326838361130b565b60208301905092915050565b6000602082019050919050565b600061134a826112df565b61135481856112ea565b935061135f836112fb565b8060005b83811015611390578151611377888261131a565b975061138283611332565b925050600181019050611363565b5085935050505092915050565b600060208201905081810360008301526113b7818461133f565b905092915050565b600082825260208201905092915050565b7f416363657373436f6e74726f6c3a2063616e206f6e6c792072656e6f756e636560008201527f20726f6c657320666f722073656c660000000000000000000000000000000000602082015250565b600061142c602f836113bf565b9150611437826113d0565b604082019050919050565b6000602082019050818103600083015261145b8161141f565b9050919050565b7f496e636f72726563742066656500000000000000000000000000000000000000600082015250565b6000611498600d836113bf565b91506114a382611462565b602082019050919050565b600060208201905081810360008301526114c78161148b565b9050919050565b6114d7816111d4565b82525050565b60006020820190506114f260008301846114ce565b92915050565b600060408201905061150d60008301856114ce565b61151a60208301846114ce565b9392505050565b7f4e487b7100000000000000000000000000000000000000000000000000000000600052604160045260246000fd5b7f4e487b7100000000000000000000000000000000000000000000000000000000600052603260045260246000fd5b60008151905061158e81611131565b92915050565b6000602082840312156115aa576115a9611067565b5b60006115b88482850161157f565b91505092915050565b60006040820190506115d6600083018561118a565b6115e360208301846114ce565b9392505050565b6115f3816110f1565b81146115fe57600080fd5b50565b600081519050611610816115ea565b92915050565b60006020828403121561162c5761162b611067565b5b600061163a84828501611601565b91505092915050565b7f4e487b7100000000000000000000000000000000000000000000000000000000600052601160045260246000fd5b600061167d82611252565b91507fffffffffffffffffffffffffffffffffffffffffffffffffffffffffffffffff8214156116b0576116af611643565b5b600182019050919050565b600081905092915050565b7f416363657373436f6e74726f6c3a206163636f756e7420000000000000000000600082015250565b60006116fc6017836116bb565b9150611707826116c6565b601782019050919050565b600081519050919050565b60005b8381101561173b578082015181840152602081019050611720565b8381111561174a576000848401525b50505050565b600061175b82611712565b61176581856116bb565b935061177581856020860161171d565b80840191505092915050565b7f206973206d697373696e6720726f6c6520000000000000000000000000000000600082015250565b60006117b76011836116bb565b91506117c282611781565b601182019050919050565b60006117d8826116ef565b91506117e48285611750565b91506117ef826117aa565b91506117fb8284611750565b91508190509392505050565b6000601f19601f8301169050919050565b600061182382611712565b61182d81856113bf565b935061183d81856020860161171d565b61184681611807565b840191505092915050565b6000602082019050818103600083015261186b8184611818565b905092915050565b7f455243313136373a20637265617465206661696c656400000000000000000000600082015250565b60006118a96016836113bf565b91506118b482611873565b602082019050919050565b600060208201905081810360008301526118d88161189c565b9050919050565b60006118ea82611252565b91506118f583611252565b9250817fffffffffffffffffffffffffffffffffffffffffffffffffffffffffffffffff048311821515161561192e5761192d611643565b5b828202905092915050565b600061194482611252565b915061194f83611252565b9250827fffffffffffffffffffffffffffffffffffffffffffffffffffffffffffffffff0382111561198457611983611643565b5b828201905092915050565b600061199a82611252565b915060008214156119ae576119ad611643565b5b600182039050919050565b7f537472696e67733a20686578206c656e67746820696e73756666696369656e74600082015250565b60006119ef6020836113bf565b91506119fa826119b9565b602082019050919050565b60006020820190508181036000830152611a1e816119e2565b905091905056fea264697066735822122037316d01c0a6ce3be7453750b6b503b679282bd570f426fa0b0db035fd47341e64736f6c63430008090033608060405234801561001057600080fd5b5061165f806100206000396000f3fe608060405234801561001057600080fd5b506004361061009e5760003560e01c806391d148541161006657806391d148541461016b578063a217fddf1461019b578063c4d66de8146101b9578063ca15c873146101d5578063d547741f146102055761009e565b806301ffc9a7146100a3578063248a9ca3146100d35780632f2ff15d1461010357806336568abe1461011f5780639010d07c1461013b575b600080fd5b6100bd60048036038101906100b89190610e81565b610221565b6040516100ca9190610ec9565b60405180910390f35b6100ed60048036038101906100e89190610f1a565b61029b565b6040516100fa9190610f56565b60405180910390f35b61011d60048036038101906101189190610fcf565b6102bb565b005b61013960048036038101906101349190610fcf565b6102e4565b005b61015560048036038101906101509190611045565b610367565b6040516101629190611094565b60405180910390f35b61018560048036038101906101809190610fcf565b610396565b6040516101929190610ec9565b60405180910390f35b6101a3610401565b6040516101b09190610f56565b60405180910390f35b6101d360048036038101906101ce91906110af565b610408565b005b6101ef60048036038101906101ea9190610f1a565b610534565b6040516101fc91906110eb565b60405180910390f35b61021f600480360381019061021a9190610fcf565b610558565b005b60007f5a05180f000000000000000000000000000000000000000000000000000000007bffffffffffffffffffffffffffffffffffffffffffffffffffffffff1916827bffffffffffffffffffffffffffffffffffffffffffffffffffffffff19161480610294575061029382610581565b5b9050919050565b600060016000838152602001908152602001600020600101549050919050565b6102c48261029b565b6102d5816102d06105fb565b610603565b6102df83836106a0565b505050565b6102ec6105fb565b73ffffffffffffffffffffffffffffffffffffffff168173ffffffffffffffffffffffffffffffffffffffff1614610359576040517f08c379a000000000000000000000000000000000000000000000000000000000815260040161035090611189565b60405180910390fd5b61036382826106d4565b5050565b600061038e826002600086815260200190815260200160002061070890919063ffffffff16565b905092915050565b60006001600084815260200190815260200160002060000160008373ffffffffffffffffffffffffffffffffffffffff1673ffffffffffffffffffffffffffffffffffffffff16815260200190815260200160002060009054906101000a900460ff16905092915050565b6000801b81565b600060019054906101000a900460ff166104305760008054906101000a900460ff1615610439565b610438610722565b5b610478576040517f08c379a000000000000000000000000000000000000000000000000000000000815260040161046f9061121b565b60405180910390fd5b60008060019054906101000a900460ff1615905080156104c8576001600060016101000a81548160ff02191690831515021790555060016000806101000a81548160ff0219169083151502179055505b600073ffffffffffffffffffffffffffffffffffffffff163373ffffffffffffffffffffffffffffffffffffffff16141561050257600080fd5b61050f6000801b83610733565b80156105305760008060016101000a81548160ff0219169083151502179055505b5050565b600061055160026000848152602001908152602001600020610741565b9050919050565b6105618261029b565b6105728161056d6105fb565b610603565b61057c83836106d4565b505050565b60007f7965db0b000000000000000000000000000000000000000000000000000000007bffffffffffffffffffffffffffffffffffffffffffffffffffffffff1916827bffffffffffffffffffffffffffffffffffffffffffffffffffffffff191614806105f457506105f382610756565b5b9050919050565b600033905090565b61060d8282610396565b61069c576106328173ffffffffffffffffffffffffffffffffffffffff1660146107c0565b6106408360001c60206107c0565b60405160200161065192919061134d565b6040516020818303038152906040526040517f08c379a000000000000000000000000000000000000000000000000000000000815260040161069391906113d1565b60405180910390fd5b5050565b6106aa82826109fc565b6106cf8160026000858152602001908152602001600020610adc90919063ffffffff16565b505050565b6106de8282610b0c565b6107038160026000858152602001908152602001600020610bee90919063ffffffff16565b505050565b60006107178360000183610c1e565b60001c905092915050565b600061072d30610c49565b15905090565b61073d82826106a0565b5050565b600061074f82600001610c6c565b9050919050565b60007f01ffc9a7000000000000000000000000000000000000000000000000000000007bffffffffffffffffffffffffffffffffffffffffffffffffffffffff1916827bffffffffffffffffffffffffffffffffffffffffffffffffffffffff1916149050919050565b6060600060028360026107d39190611422565b6107dd919061147c565b67ffffffffffffffff8111156107f6576107f56114d2565b5b6040519080825280601f01601f1916602001820160405280156108285781602001600182028036833780820191505090505b5090507f3000000000000000000000000000000000000000000000000000000000000000816000815181106108605761085f611501565b5b60200101907effffffffffffffffffffffffffffffffffffffffffffffffffffffffffffff1916908160001a9053507f7800000000000000000000000000000000000000000000000000000000000000816001815181106108c4576108c3611501565b5b60200101907effffffffffffffffffffffffffffffffffffffffffffffffffffffffffffff1916908160001a905350600060018460026109049190611422565b61090e919061147c565b90505b60018111156109ae577f3031323334353637383961626364656600000000000000000000000000000000600f8616601081106109505761094f611501565b5b1a60f81b82828151811061096757610966611501565b5b60200101907effffffffffffffffffffffffffffffffffffffffffffffffffffffffffffff1916908160001a905350600485901c9450806109a790611530565b9050610911565b50600084146109f2576040517f08c379a00000000000000000000000000000000000000000000000000000000081526004016109e9906115a6565b60405180910390fd5b8091505092915050565b610a068282610396565b610ad857600180600084815260200190815260200160002060000160008373ffffffffffffffffffffffffffffffffffffffff1673ffffffffffffffffffffffffffffffffffffffff16815260200190815260200160002060006101000a81548160ff021916908315150217905550610a7d6105fb565b73ffffffffffffffffffffffffffffffffffffffff168173ffffffffffffffffffffffffffffffffffffffff16837f2f8788117e7eff1d82e926ec794901d17c78024a50270940304540a733656f0d60405160405180910390a45b5050565b6000610b04836000018373ffffffffffffffffffffffffffffffffffffffff1660001b610c7d565b905092915050565b610b168282610396565b15610bea5760006001600084815260200190815260200160002060000160008373ffffffffffffffffffffffffffffffffffffffff1673ffffffffffffffffffffffffffffffffffffffff16815260200190815260200160002060006101000a81548160ff021916908315150217905550610b8f6105fb565b73ffffffffffffffffffffffffffffffffffffffff168173ffffffffffffffffffffffffffffffffffffffff16837ff6391f5c32d9c69d2a47ea670b442974b53935d1edc7fd64eb21e047a839171b60405160405180910390a45b5050565b6000610c16836000018373ffffffffffffffffffffffffffffffffffffffff1660001b610ced565b905092915050565b6000826000018281548110610c3657610c35611501565b5b9060005260206000200154905092915050565b6000808273ffffffffffffffffffffffffffffffffffffffff163b119050919050565b600081600001805490509050919050565b6000610c898383610e01565b610ce2578260000182908060018154018082558091505060019003906000526020600020016000909190919091505582600001805490508360010160008481526020019081526020016000208190555060019050610ce7565b600090505b92915050565b60008083600101600084815260200190815260200160002054905060008114610df5576000600182610d1f91906115c6565b9050600060018660000180549050610d3791906115c6565b9050818114610da6576000866000018281548110610d5857610d57611501565b5b9060005260206000200154905080876000018481548110610d7c57610d7b611501565b5b90600052602060002001819055508387600101600083815260200190815260200160002081905550505b85600001805480610dba57610db96115fa565b5b600190038181906000526020600020016000905590558560010160008681526020019081526020016000206000905560019350505050610dfb565b60009150505b92915050565b600080836001016000848152602001908152602001600020541415905092915050565b600080fd5b60007fffffffff0000000000000000000000000000000000000000000000000000000082169050919050565b610e5e81610e29565b8114610e6957600080fd5b50565b600081359050610e7b81610e55565b92915050565b600060208284031215610e9757610e96610e24565b5b6000610ea584828501610e6c565b91505092915050565b60008115159050919050565b610ec381610eae565b82525050565b6000602082019050610ede6000830184610eba565b92915050565b6000819050919050565b610ef781610ee4565b8114610f0257600080fd5b50565b600081359050610f1481610eee565b92915050565b600060208284031215610f3057610f2f610e24565b5b6000610f3e84828501610f05565b91505092915050565b610f5081610ee4565b82525050565b6000602082019050610f6b6000830184610f47565b92915050565b600073ffffffffffffffffffffffffffffffffffffffff82169050919050565b6000610f9c82610f71565b9050919050565b610fac81610f91565b8114610fb757600080fd5b50565b600081359050610fc981610fa3565b92915050565b60008060408385031215610fe657610fe5610e24565b5b6000610ff485828601610f05565b925050602061100585828601610fba565b9150509250929050565b6000819050919050565b6110228161100f565b811461102d57600080fd5b50565b60008135905061103f81611019565b92915050565b6000806040838503121561105c5761105b610e24565b5b600061106a85828601610f05565b925050602061107b85828601611030565b9150509250929050565b61108e81610f91565b82525050565b60006020820190506110a96000830184611085565b92915050565b6000602082840312156110c5576110c4610e24565b5b60006110d384828501610fba565b91505092915050565b6110e58161100f565b82525050565b600060208201905061110060008301846110dc565b92915050565b600082825260208201905092915050565b7f416363657373436f6e74726f6c3a2063616e206f6e6c792072656e6f756e636560008201527f20726f6c657320666f722073656c660000000000000000000000000000000000602082015250565b6000611173602f83611106565b915061117e82611117565b604082019050919050565b600060208201905081810360008301526111a281611166565b9050919050565b7f496e697469616c697a61626c653a20636f6e747261637420697320616c72656160008201527f647920696e697469616c697a6564000000000000000000000000000000000000602082015250565b6000611205602e83611106565b9150611210826111a9565b604082019050919050565b60006020820190508181036000830152611234816111f8565b9050919050565b600081905092915050565b7f416363657373436f6e74726f6c3a206163636f756e7420000000000000000000600082015250565b600061127c60178361123b565b915061128782611246565b601782019050919050565b600081519050919050565b60005b838110156112bb5780820151818401526020810190506112a0565b838111156112ca576000848401525b50505050565b60006112db82611292565b6112e5818561123b565b93506112f581856020860161129d565b80840191505092915050565b7f206973206d697373696e6720726f6c6520000000000000000000000000000000600082015250565b600061133760118361123b565b915061134282611301565b601182019050919050565b60006113588261126f565b915061136482856112d0565b915061136f8261132a565b915061137b82846112d0565b91508190509392505050565b6000601f19601f8301169050919050565b60006113a382611292565b6113ad8185611106565b93506113bd81856020860161129d565b6113c681611387565b840191505092915050565b600060208201905081810360008301526113eb8184611398565b905092915050565b7f4e487b7100000000000000000000000000000000000000000000000000000000600052601160045260246000fd5b600061142d8261100f565b91506114388361100f565b9250817fffffffffffffffffffffffffffffffffffffffffffffffffffffffffffffffff0483118215151615611471576114706113f3565b5b828202905092915050565b60006114878261100f565b91506114928361100f565b9250827fffffffffffffffffffffffffffffffffffffffffffffffffffffffffffffffff038211156114c7576114c66113f3565b5b828201905092915050565b7f4e487b7100000000000000000000000000000000000000000000000000000000600052604160045260246000fd5b7f4e487b7100000000000000000000000000000000000000000000000000000000600052603260045260246000fd5b600061153b8261100f565b9150600082141561154f5761154e6113f3565b5b600182039050919050565b7f537472696e67733a20686578206c656e67746820696e73756666696369656e74600082015250565b6000611590602083611106565b915061159b8261155a565b602082019050919050565b600060208201905081810360008301526115bf81611583565b9050919050565b60006115d18261100f565b91506115dc8361100f565b9250828210156115ef576115ee6113f3565b5b828203905092915050565b7f4e487b7100000000000000000000000000000000000000000000000000000000600052603160045260246000fdfea2646970667358221220f2b99691698cf51504bdca09ff2aa93d8cc0cd4fcbd48dc7a01de3f3f7c9fe3264736f6c63430008090033",
  "linkReferences": {},
  "deployedLinkReferences": {}
}