{
  "_format": "hh-sol-artifact-1",
  "contractName": "Factory",
  "sourceName": "contracts/Factory.sol",
  "abi": [
    {
      "inputs": [
        {
          "internalType": "uint256",
          "name": "_fee",
          "type": "uint256"
        }
      ],
      "stateMutability": "nonpayable",
      "type": "constructor"
    },
    {
      "anonymous": false,
      "inputs": [
        {
          "indexed": false,
          "internalType": "address",
          "name": "creatorAddress",
          "type": "address"
        },
        {
          "indexed": false,
          "internalType": "address",
          "name": "contractAddress",
          "type": "address"
        }
      ],
      "name": "ContractCreated",
      "type": "event"
    },
    {
      "anonymous": false,
      "inputs": [
        {
          "indexed": false,
          "internalType": "uint256",
          "name": "fee",
          "type": "uint256"
        }
      ],
      "name": "FeeUpdated",
      "type": "event"
    },
    {
      "anonymous": false,
      "inputs": [
        {
          "indexed": true,
          "internalType": "bytes32",
          "name": "role",
          "type": "bytes32"
        },
        {
          "indexed": true,
          "internalType": "bytes32",
          "name": "previousAdminRole",
          "type": "bytes32"
        },
        {
          "indexed": true,
          "internalType": "bytes32",
          "name": "newAdminRole",
          "type": "bytes32"
        }
      ],
      "name": "RoleAdminChanged",
      "type": "event"
    },
    {
      "anonymous": false,
      "inputs": [
        {
          "indexed": true,
          "internalType": "bytes32",
          "name": "role",
          "type": "bytes32"
        },
        {
          "indexed": true,
          "internalType": "address",
          "name": "account",
          "type": "address"
        },
        {
          "indexed": true,
          "internalType": "address",
          "name": "sender",
          "type": "address"
        }
      ],
      "name": "RoleGranted",
      "type": "event"
    },
    {
      "anonymous": false,
      "inputs": [
        {
          "indexed": true,
          "internalType": "bytes32",
          "name": "role",
          "type": "bytes32"
        },
        {
          "indexed": true,
          "internalType": "address",
          "name": "account",
          "type": "address"
        },
        {
          "indexed": true,
          "internalType": "address",
          "name": "sender",
          "type": "address"
        }
      ],
      "name": "RoleRevoked",
      "type": "event"
    },
    {
      "inputs": [],
      "name": "DEFAULT_ADMIN_ROLE",
      "outputs": [
        {
          "internalType": "bytes32",
          "name": "",
          "type": "bytes32"
        }
      ],
      "stateMutability": "view",
      "type": "function"
    },
    {
      "inputs": [],
      "name": "allInstances",
      "outputs": [
        {
          "internalType": "address[]",
          "name": "",
          "type": "address[]"
        }
      ],
      "stateMutability": "view",
      "type": "function"
    },
    {
      "inputs": [],
      "name": "createInstance",
      "outputs": [],
      "stateMutability": "payable",
      "type": "function"
    },
    {
      "inputs": [],
      "name": "fee",
      "outputs": [
        {
          "internalType": "uint256",
          "name": "",
          "type": "uint256"
        }
      ],
      "stateMutability": "view",
      "type": "function"
    },
    {
      "inputs": [
        {
          "internalType": "bytes32",
          "name": "role",
          "type": "bytes32"
        }
      ],
      "name": "getRoleAdmin",
      "outputs": [
        {
          "internalType": "bytes32",
          "name": "",
          "type": "bytes32"
        }
      ],
      "stateMutability": "view",
      "type": "function"
    },
    {
      "inputs": [
        {
          "internalType": "bytes32",
          "name": "role",
          "type": "bytes32"
        },
        {
          "internalType": "address",
          "name": "account",
          "type": "address"
        }
      ],
      "name": "grantRole",
      "outputs": [],
      "stateMutability": "nonpayable",
      "type": "function"
    },
    {
      "inputs": [
        {
          "internalType": "bytes32",
          "name": "role",
          "type": "bytes32"
        },
        {
          "internalType": "address",
          "name": "account",
          "type": "address"
        }
      ],
      "name": "hasRole",
      "outputs": [
        {
          "internalType": "bool",
          "name": "",
          "type": "bool"
        }
      ],
      "stateMutability": "view",
      "type": "function"
    },
    {
      "inputs": [],
      "name": "myInstances",
      "outputs": [
        {
          "internalType": "address[]",
          "name": "",
          "type": "address[]"
        }
      ],
      "stateMutability": "view",
      "type": "function"
    },
    {
      "inputs": [],
      "name": "nbInstances",
      "outputs": [
        {
          "internalType": "uint256",
          "name": "",
          "type": "uint256"
        }
      ],
      "stateMutability": "view",
      "type": "function"
    },
    {
      "inputs": [
        {
          "internalType": "bytes32",
          "name": "role",
          "type": "bytes32"
        },
        {
          "internalType": "address",
          "name": "account",
          "type": "address"
        }
      ],
      "name": "renounceRole",
      "outputs": [],
      "stateMutability": "nonpayable",
      "type": "function"
    },
    {
      "inputs": [
        {
          "internalType": "bytes32",
          "name": "role",
          "type": "bytes32"
        },
        {
          "internalType": "address",
          "name": "account",
          "type": "address"
        }
      ],
      "name": "revokeRole",
      "outputs": [],
      "stateMutability": "nonpayable",
      "type": "function"
    },
    {
      "inputs": [
        {
          "internalType": "uint256",
          "name": "_fee",
          "type": "uint256"
        }
      ],
      "name": "setFee",
      "outputs": [],
      "stateMutability": "nonpayable",
      "type": "function"
    },
    {
      "inputs": [
        {
          "internalType": "bytes4",
          "name": "interfaceId",
          "type": "bytes4"
        }
      ],
      "name": "supportsInterface",
      "outputs": [
        {
          "internalType": "bool",
          "name": "",
          "type": "bool"
        }
      ],
      "stateMutability": "view",
      "type": "function"
    }
  ],
  "bytecode": "0x60a06040523480156200001157600080fd5b5060405162003758380380620037588339818101604052810190620000379190620003a6565b60008110156200004657600080fd5b806001819055506040516200005b9062000358565b604051809103906000f08015801562000078573d6000803e3d6000fd5b5073ffffffffffffffffffffffffffffffffffffffff1660808173ffffffffffffffffffffffffffffffffffffffff1681525050620000c16000801b336200011360201b60201c565b6200010c6040518060400160405280601481526020017f4465706c6f79696e67206120466163746f72792e0000000000000000000000008152506200012960201b62000a861760201c565b50620004a0565b620001258282620001cc60201b60201c565b5050565b620001c9816040516024016200014091906200047c565b6040516020818303038152906040527f41304fac000000000000000000000000000000000000000000000000000000007bffffffffffffffffffffffffffffffffffffffffffffffffffffffff19166020820180517bffffffffffffffffffffffffffffffffffffffffffffffffffffffff8381831617835250505050620002bd60201b60201c565b50565b620001de8282620002e660201b60201c565b620002b957600160008084815260200190815260200160002060000160008373ffffffffffffffffffffffffffffffffffffffff1673ffffffffffffffffffffffffffffffffffffffff16815260200190815260200160002060006101000a81548160ff0219169083151502179055506200025e6200035060201b60201c565b73ffffffffffffffffffffffffffffffffffffffff168173ffffffffffffffffffffffffffffffffffffffff16837f2f8788117e7eff1d82e926ec794901d17c78024a50270940304540a733656f0d60405160405180910390a45b5050565b60008151905060006a636f6e736f6c652e6c6f679050602083016000808483855afa5050505050565b600080600084815260200190815260200160002060000160008373ffffffffffffffffffffffffffffffffffffffff1673ffffffffffffffffffffffffffffffffffffffff16815260200190815260200160002060009054906101000a900460ff16905092915050565b600033905090565b61177f8062001fd983390190565b600080fd5b6000819050919050565b62000380816200036b565b81146200038c57600080fd5b50565b600081519050620003a08162000375565b92915050565b600060208284031215620003bf57620003be62000366565b5b6000620003cf848285016200038f565b91505092915050565b600081519050919050565b600082825260208201905092915050565b60005b8381101562000414578082015181840152602081019050620003f7565b8381111562000424576000848401525b50505050565b6000601f19601f8301169050919050565b60006200044882620003d8565b620004548185620003e3565b935062000466818560208601620003f4565b62000471816200042a565b840191505092915050565b600060208201905081810360008301526200049881846200043b565b905092915050565b608051611b1d620004bc60003960006105780152611b1d6000f3fe6080604052600436106100c25760003560e01c806391d148541161007f578063d547741f11610059578063d547741f14610259578063ddca3f4314610282578063e6e8ae01146102ad578063fa60dd39146102d8576100c2565b806391d14854146101e7578063a217fddf14610224578063ad5014671461024f576100c2565b806301ffc9a7146100c7578063248a9ca3146101045780632f2ff15d1461014157806336568abe1461016a57806359726ade1461019357806369fe0e2d146101be575b600080fd5b3480156100d357600080fd5b506100ee60048036038101906100e99190611186565b610303565b6040516100fb91906111ce565b60405180910390f35b34801561011057600080fd5b5061012b6004803603810190610126919061121f565b61037d565b604051610138919061125b565b60405180910390f35b34801561014d57600080fd5b50610168600480360381019061016391906112d4565b61039c565b005b34801561017657600080fd5b50610191600480360381019061018c91906112d4565b6103c5565b005b34801561019f57600080fd5b506101a8610448565b6040516101b5919061132d565b60405180910390f35b3480156101ca57600080fd5b506101e560048036038101906101e09190611374565b610455565b005b3480156101f357600080fd5b5061020e600480360381019061020991906112d4565b6104bc565b60405161021b91906111ce565b60405180910390f35b34801561023057600080fd5b50610239610526565b604051610246919061125b565b60405180910390f35b61025761052d565b005b34801561026557600080fd5b50610280600480360381019061027b91906112d4565b6106a8565b005b34801561028e57600080fd5b506102976106d1565b6040516102a4919061132d565b60405180910390f35b3480156102b957600080fd5b506102c26106d7565b6040516102cf919061145f565b60405180910390f35b3480156102e457600080fd5b506102ed6109e2565b6040516102fa919061145f565b60405180910390f35b60007f7965db0b000000000000000000000000000000000000000000000000000000007bffffffffffffffffffffffffffffffffffffffffffffffffffffffff1916827bffffffffffffffffffffffffffffffffffffffffffffffffffffffff19161480610376575061037582610b1f565b5b9050919050565b6000806000838152602001908152602001600020600101549050919050565b6103a58261037d565b6103b6816103b1610b89565b610b91565b6103c08383610c2e565b505050565b6103cd610b89565b73ffffffffffffffffffffffffffffffffffffffff168173ffffffffffffffffffffffffffffffffffffffff161461043a576040517f08c379a000000000000000000000000000000000000000000000000000000000815260040161043190611504565b60405180910390fd5b6104448282610d0e565b5050565b6000600280549050905090565b6000801b61046a81610465610b89565b610b91565b600082101561047857600080fd5b816001819055507f8c4d35e54a3f2ef1134138fd8ea3daee6a3c89e10d2665996babdf70261e2c766001546040516104b0919061132d565b60405180910390a15050565b600080600084815260200190815260200160002060000160008373ffffffffffffffffffffffffffffffffffffffff1673ffffffffffffffffffffffffffffffffffffffff16815260200190815260200160002060009054906101000a900460ff16905092915050565b6000801b81565b6001543414610571576040517f08c379a000000000000000000000000000000000000000000000000000000000815260040161056890611570565b60405180910390fd5b600061059c7f0000000000000000000000000000000000000000000000000000000000000000610def565b90508073ffffffffffffffffffffffffffffffffffffffff1663c4d66de8336040518263ffffffff1660e01b81526004016105d7919061159f565b600060405180830381600087803b1580156105f157600080fd5b505af1158015610605573d6000803e3d6000fd5b505050506002819080600181540180825580915050600190039060005260206000200160009091909190916101000a81548173ffffffffffffffffffffffffffffffffffffffff021916908373ffffffffffffffffffffffffffffffffffffffff1602179055507f2d49c67975aadd2d389580b368cfff5b49965b0bd5da33c144922ce01e7a4d7b338260405161069d9291906115ba565b60405180910390a150565b6106b18261037d565b6106c2816106bd610b89565b610b91565b6106cc8383610d0e565b505050565b60015481565b606060008060028054905067ffffffffffffffff8111156106fb576106fa6115e3565b5b6040519080825280602002602001820160405280156107295781602001602082028036833780820191505090505b50905060005b6002805490508110156109035760006002828154811061075257610751611612565b5b9060005260206000200160009054906101000a900473ffffffffffffffffffffffffffffffffffffffff16905060008190508073ffffffffffffffffffffffffffffffffffffffff166391d148548273ffffffffffffffffffffffffffffffffffffffff1663a217fddf6040518163ffffffff1660e01b815260040160206040518083038186803b1580156107e657600080fd5b505afa1580156107fa573d6000803e3d6000fd5b505050506040513d601f19601f8201168201806040525081019061081e9190611656565b336040518363ffffffff1660e01b815260040161083c929190611683565b60206040518083038186803b15801561085457600080fd5b505afa158015610868573d6000803e3d6000fd5b505050506040513d601f19601f8201168201806040525081019061088c91906116d8565b156108ee57818486815181106108a5576108a4611612565b5b602002602001019073ffffffffffffffffffffffffffffffffffffffff16908173ffffffffffffffffffffffffffffffffffffffff168152505084806108ea90611734565b9550505b505080806108fb90611734565b91505061072f565b5060008267ffffffffffffffff8111156109205761091f6115e3565b5b60405190808252806020026020018201604052801561094e5781602001602082028036833780820191505090505b50905060005b81518110156109d8578281815181106109705761096f611612565b5b602002602001015182828151811061098b5761098a611612565b5b602002602001019073ffffffffffffffffffffffffffffffffffffffff16908173ffffffffffffffffffffffffffffffffffffffff168152505080806109d090611734565b915050610954565b5080935050505090565b60606000801b6109f9816109f4610b89565b610b91565b6002805480602002602001604051908101604052809291908181526020018280548015610a7b57602002820191906000526020600020905b8160009054906101000a900473ffffffffffffffffffffffffffffffffffffffff1673ffffffffffffffffffffffffffffffffffffffff1681526020019060010190808311610a31575b505050505091505090565b610b1c81604051602401610a9a9190611805565b6040516020818303038152906040527f41304fac000000000000000000000000000000000000000000000000000000007bffffffffffffffffffffffffffffffffffffffffffffffffffffffff19166020820180517bffffffffffffffffffffffffffffffffffffffffffffffffffffffff8381831617835250505050610ec4565b50565b60007f01ffc9a7000000000000000000000000000000000000000000000000000000007bffffffffffffffffffffffffffffffffffffffffffffffffffffffff1916827bffffffffffffffffffffffffffffffffffffffffffffffffffffffff1916149050919050565b600033905090565b610b9b82826104bc565b610c2a57610bc08173ffffffffffffffffffffffffffffffffffffffff166014610eed565b610bce8360001c6020610eed565b604051602001610bdf9291906118fb565b6040516020818303038152906040526040517f08c379a0000000000000000000000000000000000000000000000000000000008152600401610c219190611805565b60405180910390fd5b5050565b610c3882826104bc565b610d0a57600160008084815260200190815260200160002060000160008373ffffffffffffffffffffffffffffffffffffffff1673ffffffffffffffffffffffffffffffffffffffff16815260200190815260200160002060006101000a81548160ff021916908315150217905550610caf610b89565b73ffffffffffffffffffffffffffffffffffffffff168173ffffffffffffffffffffffffffffffffffffffff16837f2f8788117e7eff1d82e926ec794901d17c78024a50270940304540a733656f0d60405160405180910390a45b5050565b610d1882826104bc565b15610deb57600080600084815260200190815260200160002060000160008373ffffffffffffffffffffffffffffffffffffffff1673ffffffffffffffffffffffffffffffffffffffff16815260200190815260200160002060006101000a81548160ff021916908315150217905550610d90610b89565b73ffffffffffffffffffffffffffffffffffffffff168173ffffffffffffffffffffffffffffffffffffffff16837ff6391f5c32d9c69d2a47ea670b442974b53935d1edc7fd64eb21e047a839171b60405160405180910390a45b5050565b60006040517f3d602d80600a3d3981f3363d3d373d3d3d363d7300000000000000000000000081528260601b60148201527f5af43d82803e903d91602b57fd5bf3000000000000000000000000000000000060288201526037816000f0915050600073ffffffffffffffffffffffffffffffffffffffff168173ffffffffffffffffffffffffffffffffffffffff161415610ebf576040517f08c379a0000000000000000000000000000000000000000000000000000000008152600401610eb690611981565b60405180910390fd5b919050565b60008151905060006a636f6e736f6c652e6c6f679050602083016000808483855afa5050505050565b606060006002836002610f0091906119a1565b610f0a91906119fb565b67ffffffffffffffff811115610f2357610f226115e3565b5b6040519080825280601f01601f191660200182016040528015610f555781602001600182028036833780820191505090505b5090507f300000000000000000000000000000000000000000000000000000000000000081600081518110610f8d57610f8c611612565b5b60200101907effffffffffffffffffffffffffffffffffffffffffffffffffffffffffffff1916908160001a9053507f780000000000000000000000000000000000000000000000000000000000000081600181518110610ff157610ff0611612565b5b60200101907effffffffffffffffffffffffffffffffffffffffffffffffffffffffffffff1916908160001a9053506000600184600261103191906119a1565b61103b91906119fb565b90505b60018111156110db577f3031323334353637383961626364656600000000000000000000000000000000600f86166010811061107d5761107c611612565b5b1a60f81b82828151811061109457611093611612565b5b60200101907effffffffffffffffffffffffffffffffffffffffffffffffffffffffffffff1916908160001a905350600485901c9450806110d490611a51565b905061103e565b506000841461111f576040517f08c379a000000000000000000000000000000000000000000000000000000000815260040161111690611ac7565b60405180910390fd5b8091505092915050565b600080fd5b60007fffffffff0000000000000000000000000000000000000000000000000000000082169050919050565b6111638161112e565b811461116e57600080fd5b50565b6000813590506111808161115a565b92915050565b60006020828403121561119c5761119b611129565b5b60006111aa84828501611171565b91505092915050565b60008115159050919050565b6111c8816111b3565b82525050565b60006020820190506111e360008301846111bf565b92915050565b6000819050919050565b6111fc816111e9565b811461120757600080fd5b50565b600081359050611219816111f3565b92915050565b60006020828403121561123557611234611129565b5b60006112438482850161120a565b91505092915050565b611255816111e9565b82525050565b6000602082019050611270600083018461124c565b92915050565b600073ffffffffffffffffffffffffffffffffffffffff82169050919050565b60006112a182611276565b9050919050565b6112b181611296565b81146112bc57600080fd5b50565b6000813590506112ce816112a8565b92915050565b600080604083850312156112eb576112ea611129565b5b60006112f98582860161120a565b925050602061130a858286016112bf565b9150509250929050565b6000819050919050565b61132781611314565b82525050565b6000602082019050611342600083018461131e565b92915050565b61135181611314565b811461135c57600080fd5b50565b60008135905061136e81611348565b92915050565b60006020828403121561138a57611389611129565b5b60006113988482850161135f565b91505092915050565b600081519050919050565b600082825260208201905092915050565b6000819050602082019050919050565b6113d681611296565b82525050565b60006113e883836113cd565b60208301905092915050565b6000602082019050919050565b600061140c826113a1565b61141681856113ac565b9350611421836113bd565b8060005b8381101561145257815161143988826113dc565b9750611444836113f4565b925050600181019050611425565b5085935050505092915050565b600060208201905081810360008301526114798184611401565b905092915050565b600082825260208201905092915050565b7f416363657373436f6e74726f6c3a2063616e206f6e6c792072656e6f756e636560008201527f20726f6c657320666f722073656c660000000000000000000000000000000000602082015250565b60006114ee602f83611481565b91506114f982611492565b604082019050919050565b6000602082019050818103600083015261151d816114e1565b9050919050565b7f496e636f72726563742066656500000000000000000000000000000000000000600082015250565b600061155a600d83611481565b915061156582611524565b602082019050919050565b600060208201905081810360008301526115898161154d565b9050919050565b61159981611296565b82525050565b60006020820190506115b46000830184611590565b92915050565b60006040820190506115cf6000830185611590565b6115dc6020830184611590565b9392505050565b7f4e487b7100000000000000000000000000000000000000000000000000000000600052604160045260246000fd5b7f4e487b7100000000000000000000000000000000000000000000000000000000600052603260045260246000fd5b600081519050611650816111f3565b92915050565b60006020828403121561166c5761166b611129565b5b600061167a84828501611641565b91505092915050565b6000604082019050611698600083018561124c565b6116a56020830184611590565b9392505050565b6116b5816111b3565b81146116c057600080fd5b50565b6000815190506116d2816116ac565b92915050565b6000602082840312156116ee576116ed611129565b5b60006116fc848285016116c3565b91505092915050565b7f4e487b7100000000000000000000000000000000000000000000000000000000600052601160045260246000fd5b600061173f82611314565b91507fffffffffffffffffffffffffffffffffffffffffffffffffffffffffffffffff82141561177257611771611705565b5b600182019050919050565b600081519050919050565b60005b838110156117a657808201518184015260208101905061178b565b838111156117b5576000848401525b50505050565b6000601f19601f8301169050919050565b60006117d78261177d565b6117e18185611481565b93506117f1818560208601611788565b6117fa816117bb565b840191505092915050565b6000602082019050818103600083015261181f81846117cc565b905092915050565b600081905092915050565b7f416363657373436f6e74726f6c3a206163636f756e7420000000000000000000600082015250565b6000611868601783611827565b915061187382611832565b601782019050919050565b60006118898261177d565b6118938185611827565b93506118a3818560208601611788565b80840191505092915050565b7f206973206d697373696e6720726f6c6520000000000000000000000000000000600082015250565b60006118e5601183611827565b91506118f0826118af565b601182019050919050565b60006119068261185b565b9150611912828561187e565b915061191d826118d8565b9150611929828461187e565b91508190509392505050565b7f455243313136373a20637265617465206661696c656400000000000000000000600082015250565b600061196b601683611481565b915061197682611935565b602082019050919050565b6000602082019050818103600083015261199a8161195e565b9050919050565b60006119ac82611314565b91506119b783611314565b9250817fffffffffffffffffffffffffffffffffffffffffffffffffffffffffffffffff04831182151516156119f0576119ef611705565b5b828202905092915050565b6000611a0682611314565b9150611a1183611314565b9250827fffffffffffffffffffffffffffffffffffffffffffffffffffffffffffffffff03821115611a4657611a45611705565b5b828201905092915050565b6000611a5c82611314565b91506000821415611a7057611a6f611705565b5b600182039050919050565b7f537472696e67733a20686578206c656e67746820696e73756666696369656e74600082015250565b6000611ab1602083611481565b9150611abc82611a7b565b602082019050919050565b60006020820190508181036000830152611ae081611aa4565b905091905056fea26469706673582212206f18a806a9708ca7e9ac479c01f9a845fae2410d15520e89f43a560c0179268464736f6c63430008090033608060405234801561001057600080fd5b5061175f806100206000396000f3fe608060405234801561001057600080fd5b506004361061009e5760003560e01c806391d148541161006657806391d148541461016b578063a217fddf1461019b578063c4d66de8146101b9578063ca15c873146101d5578063d547741f146102055761009e565b806301ffc9a7146100a3578063248a9ca3146100d35780632f2ff15d1461010357806336568abe1461011f5780639010d07c1461013b575b600080fd5b6100bd60048036038101906100b89190610f81565b610221565b6040516100ca9190610fc9565b60405180910390f35b6100ed60048036038101906100e8919061101a565b61029b565b6040516100fa9190611056565b60405180910390f35b61011d600480360381019061011891906110cf565b6102bb565b005b610139600480360381019061013491906110cf565b6102e4565b005b61015560048036038101906101509190611145565b610367565b6040516101629190611194565b60405180910390f35b610185600480360381019061018091906110cf565b610396565b6040516101929190610fc9565b60405180910390f35b6101a3610401565b6040516101b09190611056565b60405180910390f35b6101d360048036038101906101ce91906111af565b610408565b005b6101ef60048036038101906101ea919061101a565b610572565b6040516101fc91906111eb565b60405180910390f35b61021f600480360381019061021a91906110cf565b610596565b005b60007f5a05180f000000000000000000000000000000000000000000000000000000007bffffffffffffffffffffffffffffffffffffffffffffffffffffffff1916827bffffffffffffffffffffffffffffffffffffffffffffffffffffffff191614806102945750610293826105bf565b5b9050919050565b600060016000838152602001908152602001600020600101549050919050565b6102c48261029b565b6102d5816102d0610639565b610641565b6102df83836106de565b505050565b6102ec610639565b73ffffffffffffffffffffffffffffffffffffffff168173ffffffffffffffffffffffffffffffffffffffff1614610359576040517f08c379a000000000000000000000000000000000000000000000000000000000815260040161035090611289565b60405180910390fd5b6103638282610712565b5050565b600061038e826002600086815260200190815260200160002061074690919063ffffffff16565b905092915050565b60006001600084815260200190815260200160002060000160008373ffffffffffffffffffffffffffffffffffffffff1673ffffffffffffffffffffffffffffffffffffffff16815260200190815260200160002060009054906101000a900460ff16905092915050565b6000801b81565b600060019054906101000a900460ff166104305760008054906101000a900460ff1615610439565b610438610760565b5b610478576040517f08c379a000000000000000000000000000000000000000000000000000000000815260040161046f9061131b565b60405180910390fd5b60008060019054906101000a900460ff1615905080156104c8576001600060016101000a81548160ff02191690831515021790555060016000806101000a81548160ff0219169083151502179055505b600073ffffffffffffffffffffffffffffffffffffffff163373ffffffffffffffffffffffffffffffffffffffff16141561050257600080fd5b61050f6000801b83610771565b61054d6040518060400160405280601581526020017f4465706c6f79696e67206120436f6e74726163742e000000000000000000000081525061077f565b801561056e5760008060016101000a81548160ff0219169083151502179055505b5050565b600061058f60026000848152602001908152602001600020610818565b9050919050565b61059f8261029b565b6105b0816105ab610639565b610641565b6105ba8383610712565b505050565b60007f7965db0b000000000000000000000000000000000000000000000000000000007bffffffffffffffffffffffffffffffffffffffffffffffffffffffff1916827bffffffffffffffffffffffffffffffffffffffffffffffffffffffff1916148061063257506106318261082d565b5b9050919050565b600033905090565b61064b8282610396565b6106da576106708173ffffffffffffffffffffffffffffffffffffffff166014610897565b61067e8360001c6020610897565b60405160200161068f92919061144d565b6040516020818303038152906040526040517f08c379a00000000000000000000000000000000000000000000000000000000081526004016106d191906114d1565b60405180910390fd5b5050565b6106e88282610ad3565b61070d8160026000858152602001908152602001600020610bb390919063ffffffff16565b505050565b61071c8282610be3565b6107418160026000858152602001908152602001600020610cc590919063ffffffff16565b505050565b60006107558360000183610cf5565b60001c905092915050565b600061076b30610d20565b15905090565b61077b82826106de565b5050565b6108158160405160240161079391906114d1565b6040516020818303038152906040527f41304fac000000000000000000000000000000000000000000000000000000007bffffffffffffffffffffffffffffffffffffffffffffffffffffffff19166020820180517bffffffffffffffffffffffffffffffffffffffffffffffffffffffff8381831617835250505050610d43565b50565b600061082682600001610d6c565b9050919050565b60007f01ffc9a7000000000000000000000000000000000000000000000000000000007bffffffffffffffffffffffffffffffffffffffffffffffffffffffff1916827bffffffffffffffffffffffffffffffffffffffffffffffffffffffff1916149050919050565b6060600060028360026108aa9190611522565b6108b4919061157c565b67ffffffffffffffff8111156108cd576108cc6115d2565b5b6040519080825280601f01601f1916602001820160405280156108ff5781602001600182028036833780820191505090505b5090507f30000000000000000000000000000000000000000000000000000000000000008160008151811061093757610936611601565b5b60200101907effffffffffffffffffffffffffffffffffffffffffffffffffffffffffffff1916908160001a9053507f78000000000000000000000000000000000000000000000000000000000000008160018151811061099b5761099a611601565b5b60200101907effffffffffffffffffffffffffffffffffffffffffffffffffffffffffffff1916908160001a905350600060018460026109db9190611522565b6109e5919061157c565b90505b6001811115610a85577f3031323334353637383961626364656600000000000000000000000000000000600f861660108110610a2757610a26611601565b5b1a60f81b828281518110610a3e57610a3d611601565b5b60200101907effffffffffffffffffffffffffffffffffffffffffffffffffffffffffffff1916908160001a905350600485901c945080610a7e90611630565b90506109e8565b5060008414610ac9576040517f08c379a0000000000000000000000000000000000000000000000000000000008152600401610ac0906116a6565b60405180910390fd5b8091505092915050565b610add8282610396565b610baf57600180600084815260200190815260200160002060000160008373ffffffffffffffffffffffffffffffffffffffff1673ffffffffffffffffffffffffffffffffffffffff16815260200190815260200160002060006101000a81548160ff021916908315150217905550610b54610639565b73ffffffffffffffffffffffffffffffffffffffff168173ffffffffffffffffffffffffffffffffffffffff16837f2f8788117e7eff1d82e926ec794901d17c78024a50270940304540a733656f0d60405160405180910390a45b5050565b6000610bdb836000018373ffffffffffffffffffffffffffffffffffffffff1660001b610d7d565b905092915050565b610bed8282610396565b15610cc15760006001600084815260200190815260200160002060000160008373ffffffffffffffffffffffffffffffffffffffff1673ffffffffffffffffffffffffffffffffffffffff16815260200190815260200160002060006101000a81548160ff021916908315150217905550610c66610639565b73ffffffffffffffffffffffffffffffffffffffff168173ffffffffffffffffffffffffffffffffffffffff16837ff6391f5c32d9c69d2a47ea670b442974b53935d1edc7fd64eb21e047a839171b60405160405180910390a45b5050565b6000610ced836000018373ffffffffffffffffffffffffffffffffffffffff1660001b610ded565b905092915050565b6000826000018281548110610d0d57610d0c611601565b5b9060005260206000200154905092915050565b6000808273ffffffffffffffffffffffffffffffffffffffff163b119050919050565b60008151905060006a636f6e736f6c652e6c6f679050602083016000808483855afa5050505050565b600081600001805490509050919050565b6000610d898383610f01565b610de2578260000182908060018154018082558091505060019003906000526020600020016000909190919091505582600001805490508360010160008481526020019081526020016000208190555060019050610de7565b600090505b92915050565b60008083600101600084815260200190815260200160002054905060008114610ef5576000600182610e1f91906116c6565b9050600060018660000180549050610e3791906116c6565b9050818114610ea6576000866000018281548110610e5857610e57611601565b5b9060005260206000200154905080876000018481548110610e7c57610e7b611601565b5b90600052602060002001819055508387600101600083815260200190815260200160002081905550505b85600001805480610eba57610eb96116fa565b5b600190038181906000526020600020016000905590558560010160008681526020019081526020016000206000905560019350505050610efb565b60009150505b92915050565b600080836001016000848152602001908152602001600020541415905092915050565b600080fd5b60007fffffffff0000000000000000000000000000000000000000000000000000000082169050919050565b610f5e81610f29565b8114610f6957600080fd5b50565b600081359050610f7b81610f55565b92915050565b600060208284031215610f9757610f96610f24565b5b6000610fa584828501610f6c565b91505092915050565b60008115159050919050565b610fc381610fae565b82525050565b6000602082019050610fde6000830184610fba565b92915050565b6000819050919050565b610ff781610fe4565b811461100257600080fd5b50565b60008135905061101481610fee565b92915050565b6000602082840312156110305761102f610f24565b5b600061103e84828501611005565b91505092915050565b61105081610fe4565b82525050565b600060208201905061106b6000830184611047565b92915050565b600073ffffffffffffffffffffffffffffffffffffffff82169050919050565b600061109c82611071565b9050919050565b6110ac81611091565b81146110b757600080fd5b50565b6000813590506110c9816110a3565b92915050565b600080604083850312156110e6576110e5610f24565b5b60006110f485828601611005565b9250506020611105858286016110ba565b9150509250929050565b6000819050919050565b6111228161110f565b811461112d57600080fd5b50565b60008135905061113f81611119565b92915050565b6000806040838503121561115c5761115b610f24565b5b600061116a85828601611005565b925050602061117b85828601611130565b9150509250929050565b61118e81611091565b82525050565b60006020820190506111a96000830184611185565b92915050565b6000602082840312156111c5576111c4610f24565b5b60006111d3848285016110ba565b91505092915050565b6111e58161110f565b82525050565b600060208201905061120060008301846111dc565b92915050565b600082825260208201905092915050565b7f416363657373436f6e74726f6c3a2063616e206f6e6c792072656e6f756e636560008201527f20726f6c657320666f722073656c660000000000000000000000000000000000602082015250565b6000611273602f83611206565b915061127e82611217565b604082019050919050565b600060208201905081810360008301526112a281611266565b9050919050565b7f496e697469616c697a61626c653a20636f6e747261637420697320616c72656160008201527f647920696e697469616c697a6564000000000000000000000000000000000000602082015250565b6000611305602e83611206565b9150611310826112a9565b604082019050919050565b60006020820190508181036000830152611334816112f8565b9050919050565b600081905092915050565b7f416363657373436f6e74726f6c3a206163636f756e7420000000000000000000600082015250565b600061137c60178361133b565b915061138782611346565b601782019050919050565b600081519050919050565b60005b838110156113bb5780820151818401526020810190506113a0565b838111156113ca576000848401525b50505050565b60006113db82611392565b6113e5818561133b565b93506113f581856020860161139d565b80840191505092915050565b7f206973206d697373696e6720726f6c6520000000000000000000000000000000600082015250565b600061143760118361133b565b915061144282611401565b601182019050919050565b60006114588261136f565b915061146482856113d0565b915061146f8261142a565b915061147b82846113d0565b91508190509392505050565b6000601f19601f8301169050919050565b60006114a382611392565b6114ad8185611206565b93506114bd81856020860161139d565b6114c681611487565b840191505092915050565b600060208201905081810360008301526114eb8184611498565b905092915050565b7f4e487b7100000000000000000000000000000000000000000000000000000000600052601160045260246000fd5b600061152d8261110f565b91506115388361110f565b9250817fffffffffffffffffffffffffffffffffffffffffffffffffffffffffffffffff0483118215151615611571576115706114f3565b5b828202905092915050565b60006115878261110f565b91506115928361110f565b9250827fffffffffffffffffffffffffffffffffffffffffffffffffffffffffffffffff038211156115c7576115c66114f3565b5b828201905092915050565b7f4e487b7100000000000000000000000000000000000000000000000000000000600052604160045260246000fd5b7f4e487b7100000000000000000000000000000000000000000000000000000000600052603260045260246000fd5b600061163b8261110f565b9150600082141561164f5761164e6114f3565b5b600182039050919050565b7f537472696e67733a20686578206c656e67746820696e73756666696369656e74600082015250565b6000611690602083611206565b915061169b8261165a565b602082019050919050565b600060208201905081810360008301526116bf81611683565b9050919050565b60006116d18261110f565b91506116dc8361110f565b9250828210156116ef576116ee6114f3565b5b828203905092915050565b7f4e487b7100000000000000000000000000000000000000000000000000000000600052603160045260246000fdfea2646970667358221220ee924434439ec9ba873b9f4ce942a3e44ae930627643410eadf2e32ef519513b64736f6c63430008090033",
  "linkReferences": {},
  "deployedLinkReferences": {}
}