{
  "_format": "hh-sol-artifact-1",
  "contractName": "Factory",
  "sourceName": "contracts/Factory.sol",
  "abi": [
    {
      "inputs": [
        {
          "internalType": "uint256",
          "name": "_fee",
          "type": "uint256"
        }
      ],
      "stateMutability": "nonpayable",
      "type": "constructor"
    },
    {
      "anonymous": false,
      "inputs": [
        {
          "indexed": false,
          "internalType": "address",
          "name": "creatorAddress",
          "type": "address"
        },
        {
          "indexed": false,
          "internalType": "address",
          "name": "contractAddress",
          "type": "address"
        }
      ],
      "name": "ContractCreated",
      "type": "event"
    },
    {
      "anonymous": false,
      "inputs": [
        {
          "indexed": false,
          "internalType": "uint256",
          "name": "fee",
          "type": "uint256"
        }
      ],
      "name": "FeeUpdated",
      "type": "event"
    },
    {
      "anonymous": false,
      "inputs": [
        {
          "indexed": true,
          "internalType": "bytes32",
          "name": "role",
          "type": "bytes32"
        },
        {
          "indexed": true,
          "internalType": "bytes32",
          "name": "previousAdminRole",
          "type": "bytes32"
        },
        {
          "indexed": true,
          "internalType": "bytes32",
          "name": "newAdminRole",
          "type": "bytes32"
        }
      ],
      "name": "RoleAdminChanged",
      "type": "event"
    },
    {
      "anonymous": false,
      "inputs": [
        {
          "indexed": true,
          "internalType": "bytes32",
          "name": "role",
          "type": "bytes32"
        },
        {
          "indexed": true,
          "internalType": "address",
          "name": "account",
          "type": "address"
        },
        {
          "indexed": true,
          "internalType": "address",
          "name": "sender",
          "type": "address"
        }
      ],
      "name": "RoleGranted",
      "type": "event"
    },
    {
      "anonymous": false,
      "inputs": [
        {
          "indexed": true,
          "internalType": "bytes32",
          "name": "role",
          "type": "bytes32"
        },
        {
          "indexed": true,
          "internalType": "address",
          "name": "account",
          "type": "address"
        },
        {
          "indexed": true,
          "internalType": "address",
          "name": "sender",
          "type": "address"
        }
      ],
      "name": "RoleRevoked",
      "type": "event"
    },
    {
      "inputs": [],
      "name": "DEFAULT_ADMIN_ROLE",
      "outputs": [
        {
          "internalType": "bytes32",
          "name": "",
          "type": "bytes32"
        }
      ],
      "stateMutability": "view",
      "type": "function"
    },
    {
      "inputs": [],
      "name": "createInstance",
      "outputs": [],
      "stateMutability": "payable",
      "type": "function"
    },
    {
      "inputs": [],
      "name": "fee",
      "outputs": [
        {
          "internalType": "uint256",
          "name": "",
          "type": "uint256"
        }
      ],
      "stateMutability": "view",
      "type": "function"
    },
    {
      "inputs": [],
      "name": "getInstances",
      "outputs": [
        {
          "internalType": "address[]",
          "name": "",
          "type": "address[]"
        }
      ],
      "stateMutability": "view",
      "type": "function"
    },
    {
      "inputs": [
        {
          "internalType": "address",
          "name": "_member",
          "type": "address"
        }
      ],
      "name": "getMemberInstances",
      "outputs": [
        {
          "internalType": "address[]",
          "name": "",
          "type": "address[]"
        }
      ],
      "stateMutability": "view",
      "type": "function"
    },
    {
      "inputs": [
        {
          "internalType": "bytes32",
          "name": "role",
          "type": "bytes32"
        }
      ],
      "name": "getRoleAdmin",
      "outputs": [
        {
          "internalType": "bytes32",
          "name": "",
          "type": "bytes32"
        }
      ],
      "stateMutability": "view",
      "type": "function"
    },
    {
      "inputs": [
        {
          "internalType": "bytes32",
          "name": "role",
          "type": "bytes32"
        },
        {
          "internalType": "address",
          "name": "account",
          "type": "address"
        }
      ],
      "name": "grantRole",
      "outputs": [],
      "stateMutability": "nonpayable",
      "type": "function"
    },
    {
      "inputs": [
        {
          "internalType": "bytes32",
          "name": "role",
          "type": "bytes32"
        },
        {
          "internalType": "address",
          "name": "account",
          "type": "address"
        }
      ],
      "name": "hasRole",
      "outputs": [
        {
          "internalType": "bool",
          "name": "",
          "type": "bool"
        }
      ],
      "stateMutability": "view",
      "type": "function"
    },
    {
      "inputs": [],
      "name": "instanceCount",
      "outputs": [
        {
          "internalType": "uint256",
          "name": "",
          "type": "uint256"
        }
      ],
      "stateMutability": "view",
      "type": "function"
    },
    {
      "inputs": [
        {
          "internalType": "bytes32",
          "name": "role",
          "type": "bytes32"
        },
        {
          "internalType": "address",
          "name": "account",
          "type": "address"
        }
      ],
      "name": "renounceRole",
      "outputs": [],
      "stateMutability": "nonpayable",
      "type": "function"
    },
    {
      "inputs": [
        {
          "internalType": "bytes32",
          "name": "role",
          "type": "bytes32"
        },
        {
          "internalType": "address",
          "name": "account",
          "type": "address"
        }
      ],
      "name": "revokeRole",
      "outputs": [],
      "stateMutability": "nonpayable",
      "type": "function"
    },
    {
      "inputs": [
        {
          "internalType": "uint256",
          "name": "_fee",
          "type": "uint256"
        }
      ],
      "name": "setFee",
      "outputs": [],
      "stateMutability": "nonpayable",
      "type": "function"
    },
    {
      "inputs": [
        {
          "internalType": "bytes4",
          "name": "interfaceId",
          "type": "bytes4"
        }
      ],
      "name": "supportsInterface",
      "outputs": [
        {
          "internalType": "bool",
          "name": "",
          "type": "bool"
        }
      ],
      "stateMutability": "view",
      "type": "function"
    }
  ],
  "bytecode": "0x60a06040523480156200001157600080fd5b506040516200342e3803806200342e83398181016040528101906200003791906200028f565b60008110156200004657600080fd5b806001819055506040516200005b9062000241565b604051809103906000f08015801562000078573d6000803e3d6000fd5b5073ffffffffffffffffffffffffffffffffffffffff1660808173ffffffffffffffffffffffffffffffffffffffff1681525050620000c16000801b33620000c860201b60201c565b50620002c1565b620000da8282620000de60201b60201c565b5050565b620000f08282620001cf60201b60201c565b620001cb57600160008084815260200190815260200160002060000160008373ffffffffffffffffffffffffffffffffffffffff1673ffffffffffffffffffffffffffffffffffffffff16815260200190815260200160002060006101000a81548160ff021916908315150217905550620001706200023960201b60201c565b73ffffffffffffffffffffffffffffffffffffffff168173ffffffffffffffffffffffffffffffffffffffff16837f2f8788117e7eff1d82e926ec794901d17c78024a50270940304540a733656f0d60405160405180910390a45b5050565b600080600084815260200190815260200160002060000160008373ffffffffffffffffffffffffffffffffffffffff1673ffffffffffffffffffffffffffffffffffffffff16815260200190815260200160002060009054906101000a900460ff16905092915050565b600033905090565b61167f8062001daf83390190565b600080fd5b6000819050919050565b620002698162000254565b81146200027557600080fd5b50565b60008151905062000289816200025e565b92915050565b600060208284031215620002a857620002a76200024f565b5b6000620002b88482850162000278565b91505092915050565b608051611ad2620002dd60003960006105bc0152611ad26000f3fe6080604052600436106100c25760003560e01c8063a217fddf1161007f578063d547741f11610059578063d547741f14610259578063d5844eb314610282578063ddca3f43146102bf578063ec56c716146102ea576100c2565b8063a217fddf146101f9578063ad50146714610224578063d35fdd791461022e576100c2565b806301ffc9a7146100c7578063248a9ca3146101045780632f2ff15d1461014157806336568abe1461016a57806369fe0e2d1461019357806391d14854146101bc575b600080fd5b3480156100d357600080fd5b506100ee60048036038101906100e9919061110e565b610315565b6040516100fb9190611156565b60405180910390f35b34801561011057600080fd5b5061012b600480360381019061012691906111a7565b61038f565b60405161013891906111e3565b60405180910390f35b34801561014d57600080fd5b506101686004803603810190610163919061125c565b6103ae565b005b34801561017657600080fd5b50610191600480360381019061018c919061125c565b6103d7565b005b34801561019f57600080fd5b506101ba60048036038101906101b591906112d2565b61045a565b005b3480156101c857600080fd5b506101e360048036038101906101de919061125c565b6104c1565b6040516101f09190611156565b60405180910390f35b34801561020557600080fd5b5061020e61052b565b60405161021b91906111e3565b60405180910390f35b61022c610532565b005b34801561023a57600080fd5b506102436106ed565b60405161025091906113bd565b60405180910390f35b34801561026557600080fd5b50610280600480360381019061027b919061125c565b61077b565b005b34801561028e57600080fd5b506102a960048036038101906102a491906113df565b6107a4565b6040516102b691906113bd565b60405180910390f35b3480156102cb57600080fd5b506102d4610abd565b6040516102e1919061141b565b60405180910390f35b3480156102f657600080fd5b506102ff610ac3565b60405161030c919061141b565b60405180910390f35b60007f7965db0b000000000000000000000000000000000000000000000000000000007bffffffffffffffffffffffffffffffffffffffffffffffffffffffff1916827bffffffffffffffffffffffffffffffffffffffffffffffffffffffff19161480610388575061038782610ad0565b5b9050919050565b6000806000838152602001908152602001600020600101549050919050565b6103b78261038f565b6103c8816103c3610b3a565b610b42565b6103d28383610bdf565b505050565b6103df610b3a565b73ffffffffffffffffffffffffffffffffffffffff168173ffffffffffffffffffffffffffffffffffffffff161461044c576040517f08c379a0000000000000000000000000000000000000000000000000000000008152600401610443906114b9565b60405180910390fd5b6104568282610cbf565b5050565b6000801b61046f8161046a610b3a565b610b42565b600082101561047d57600080fd5b816001819055507f8c4d35e54a3f2ef1134138fd8ea3daee6a3c89e10d2665996babdf70261e2c766001546040516104b5919061141b565b60405180910390a15050565b600080600084815260200190815260200160002060000160008373ffffffffffffffffffffffffffffffffffffffff1673ffffffffffffffffffffffffffffffffffffffff16815260200190815260200160002060009054906101000a900460ff16905092915050565b6000801b81565b600073ffffffffffffffffffffffffffffffffffffffff163373ffffffffffffffffffffffffffffffffffffffff16141561056c57600080fd5b60015434146105b0576040517f08c379a00000000000000000000000000000000000000000000000000000000081526004016105a790611525565b60405180910390fd5b600033905060006105e07f0000000000000000000000000000000000000000000000000000000000000000610da0565b90508073ffffffffffffffffffffffffffffffffffffffff1663c4d66de8836040518263ffffffff1660e01b815260040161061b9190611554565b600060405180830381600087803b15801561063557600080fd5b505af1158015610649573d6000803e3d6000fd5b505050506002819080600181540180825580915050600190039060005260206000200160009091909190916101000a81548173ffffffffffffffffffffffffffffffffffffffff021916908373ffffffffffffffffffffffffffffffffffffffff1602179055507f2d49c67975aadd2d389580b368cfff5b49965b0bd5da33c144922ce01e7a4d7b82826040516106e192919061156f565b60405180910390a15050565b6060600280548060200260200160405190810160405280929190818152602001828054801561077157602002820191906000526020600020905b8160009054906101000a900473ffffffffffffffffffffffffffffffffffffffff1673ffffffffffffffffffffffffffffffffffffffff1681526020019060010190808311610727575b5050505050905090565b6107848261038f565b61079581610790610b3a565b610b42565b61079f8383610cbf565b505050565b606060008060028054905067ffffffffffffffff8111156107c8576107c7611598565b5b6040519080825280602002602001820160405280156107f65781602001602082028036833780820191505090505b50905060005b6002805490508110156109dc5760006002828154811061081f5761081e6115c7565b5b9060005260206000200160009054906101000a900473ffffffffffffffffffffffffffffffffffffffff169050600081905060008173ffffffffffffffffffffffffffffffffffffffff1663a217fddf6040518163ffffffff1660e01b815260040160206040518083038186803b15801561089957600080fd5b505afa1580156108ad573d6000803e3d6000fd5b505050506040513d601f19601f820116820180604052508101906108d1919061160b565b905060008273ffffffffffffffffffffffffffffffffffffffff166391d14854838b6040518363ffffffff1660e01b8152600401610910929190611638565b60206040518083038186803b15801561092857600080fd5b505afa15801561093c573d6000803e3d6000fd5b505050506040513d601f19601f82011682018060405250810190610960919061168d565b905080156109c5578386888151811061097c5761097b6115c7565b5b602002602001019073ffffffffffffffffffffffffffffffffffffffff16908173ffffffffffffffffffffffffffffffffffffffff168152505086806109c1906116e9565b9750505b5050505080806109d4906116e9565b9150506107fc565b5060008267ffffffffffffffff8111156109f9576109f8611598565b5b604051908082528060200260200182016040528015610a275781602001602082028036833780820191505090505b50905060005b8151811015610ab157828181518110610a4957610a486115c7565b5b6020026020010151828281518110610a6457610a636115c7565b5b602002602001019073ffffffffffffffffffffffffffffffffffffffff16908173ffffffffffffffffffffffffffffffffffffffff16815250508080610aa9906116e9565b915050610a2d565b50809350505050919050565b60015481565b6000600280549050905090565b60007f01ffc9a7000000000000000000000000000000000000000000000000000000007bffffffffffffffffffffffffffffffffffffffffffffffffffffffff1916827bffffffffffffffffffffffffffffffffffffffffffffffffffffffff1916149050919050565b600033905090565b610b4c82826104c1565b610bdb57610b718173ffffffffffffffffffffffffffffffffffffffff166014610e75565b610b7f8360001c6020610e75565b604051602001610b90929190611844565b6040516020818303038152906040526040517f08c379a0000000000000000000000000000000000000000000000000000000008152600401610bd291906118c8565b60405180910390fd5b5050565b610be982826104c1565b610cbb57600160008084815260200190815260200160002060000160008373ffffffffffffffffffffffffffffffffffffffff1673ffffffffffffffffffffffffffffffffffffffff16815260200190815260200160002060006101000a81548160ff021916908315150217905550610c60610b3a565b73ffffffffffffffffffffffffffffffffffffffff168173ffffffffffffffffffffffffffffffffffffffff16837f2f8788117e7eff1d82e926ec794901d17c78024a50270940304540a733656f0d60405160405180910390a45b5050565b610cc982826104c1565b15610d9c57600080600084815260200190815260200160002060000160008373ffffffffffffffffffffffffffffffffffffffff1673ffffffffffffffffffffffffffffffffffffffff16815260200190815260200160002060006101000a81548160ff021916908315150217905550610d41610b3a565b73ffffffffffffffffffffffffffffffffffffffff168173ffffffffffffffffffffffffffffffffffffffff16837ff6391f5c32d9c69d2a47ea670b442974b53935d1edc7fd64eb21e047a839171b60405160405180910390a45b5050565b60006040517f3d602d80600a3d3981f3363d3d373d3d3d363d7300000000000000000000000081528260601b60148201527f5af43d82803e903d91602b57fd5bf3000000000000000000000000000000000060288201526037816000f0915050600073ffffffffffffffffffffffffffffffffffffffff168173ffffffffffffffffffffffffffffffffffffffff161415610e70576040517f08c379a0000000000000000000000000000000000000000000000000000000008152600401610e6790611936565b60405180910390fd5b919050565b606060006002836002610e889190611956565b610e9291906119b0565b67ffffffffffffffff811115610eab57610eaa611598565b5b6040519080825280601f01601f191660200182016040528015610edd5781602001600182028036833780820191505090505b5090507f300000000000000000000000000000000000000000000000000000000000000081600081518110610f1557610f146115c7565b5b60200101907effffffffffffffffffffffffffffffffffffffffffffffffffffffffffffff1916908160001a9053507f780000000000000000000000000000000000000000000000000000000000000081600181518110610f7957610f786115c7565b5b60200101907effffffffffffffffffffffffffffffffffffffffffffffffffffffffffffff1916908160001a90535060006001846002610fb99190611956565b610fc391906119b0565b90505b6001811115611063577f3031323334353637383961626364656600000000000000000000000000000000600f861660108110611005576110046115c7565b5b1a60f81b82828151811061101c5761101b6115c7565b5b60200101907effffffffffffffffffffffffffffffffffffffffffffffffffffffffffffff1916908160001a905350600485901c94508061105c90611a06565b9050610fc6565b50600084146110a7576040517f08c379a000000000000000000000000000000000000000000000000000000000815260040161109e90611a7c565b60405180910390fd5b8091505092915050565b600080fd5b60007fffffffff0000000000000000000000000000000000000000000000000000000082169050919050565b6110eb816110b6565b81146110f657600080fd5b50565b600081359050611108816110e2565b92915050565b600060208284031215611124576111236110b1565b5b6000611132848285016110f9565b91505092915050565b60008115159050919050565b6111508161113b565b82525050565b600060208201905061116b6000830184611147565b92915050565b6000819050919050565b61118481611171565b811461118f57600080fd5b50565b6000813590506111a18161117b565b92915050565b6000602082840312156111bd576111bc6110b1565b5b60006111cb84828501611192565b91505092915050565b6111dd81611171565b82525050565b60006020820190506111f860008301846111d4565b92915050565b600073ffffffffffffffffffffffffffffffffffffffff82169050919050565b6000611229826111fe565b9050919050565b6112398161121e565b811461124457600080fd5b50565b60008135905061125681611230565b92915050565b60008060408385031215611273576112726110b1565b5b600061128185828601611192565b925050602061129285828601611247565b9150509250929050565b6000819050919050565b6112af8161129c565b81146112ba57600080fd5b50565b6000813590506112cc816112a6565b92915050565b6000602082840312156112e8576112e76110b1565b5b60006112f6848285016112bd565b91505092915050565b600081519050919050565b600082825260208201905092915050565b6000819050602082019050919050565b6113348161121e565b82525050565b6000611346838361132b565b60208301905092915050565b6000602082019050919050565b600061136a826112ff565b611374818561130a565b935061137f8361131b565b8060005b838110156113b0578151611397888261133a565b97506113a283611352565b925050600181019050611383565b5085935050505092915050565b600060208201905081810360008301526113d7818461135f565b905092915050565b6000602082840312156113f5576113f46110b1565b5b600061140384828501611247565b91505092915050565b6114158161129c565b82525050565b6000602082019050611430600083018461140c565b92915050565b600082825260208201905092915050565b7f416363657373436f6e74726f6c3a2063616e206f6e6c792072656e6f756e636560008201527f20726f6c657320666f722073656c660000000000000000000000000000000000602082015250565b60006114a3602f83611436565b91506114ae82611447565b604082019050919050565b600060208201905081810360008301526114d281611496565b9050919050565b7f496e636f72726563742066656500000000000000000000000000000000000000600082015250565b600061150f600d83611436565b915061151a826114d9565b602082019050919050565b6000602082019050818103600083015261153e81611502565b9050919050565b61154e8161121e565b82525050565b60006020820190506115696000830184611545565b92915050565b60006040820190506115846000830185611545565b6115916020830184611545565b9392505050565b7f4e487b7100000000000000000000000000000000000000000000000000000000600052604160045260246000fd5b7f4e487b7100000000000000000000000000000000000000000000000000000000600052603260045260246000fd5b6000815190506116058161117b565b92915050565b600060208284031215611621576116206110b1565b5b600061162f848285016115f6565b91505092915050565b600060408201905061164d60008301856111d4565b61165a6020830184611545565b9392505050565b61166a8161113b565b811461167557600080fd5b50565b60008151905061168781611661565b92915050565b6000602082840312156116a3576116a26110b1565b5b60006116b184828501611678565b91505092915050565b7f4e487b7100000000000000000000000000000000000000000000000000000000600052601160045260246000fd5b60006116f48261129c565b91507fffffffffffffffffffffffffffffffffffffffffffffffffffffffffffffffff821415611727576117266116ba565b5b600182019050919050565b600081905092915050565b7f416363657373436f6e74726f6c3a206163636f756e7420000000000000000000600082015250565b6000611773601783611732565b915061177e8261173d565b601782019050919050565b600081519050919050565b60005b838110156117b2578082015181840152602081019050611797565b838111156117c1576000848401525b50505050565b60006117d282611789565b6117dc8185611732565b93506117ec818560208601611794565b80840191505092915050565b7f206973206d697373696e6720726f6c6520000000000000000000000000000000600082015250565b600061182e601183611732565b9150611839826117f8565b601182019050919050565b600061184f82611766565b915061185b82856117c7565b915061186682611821565b915061187282846117c7565b91508190509392505050565b6000601f19601f8301169050919050565b600061189a82611789565b6118a48185611436565b93506118b4818560208601611794565b6118bd8161187e565b840191505092915050565b600060208201905081810360008301526118e2818461188f565b905092915050565b7f455243313136373a20637265617465206661696c656400000000000000000000600082015250565b6000611920601683611436565b915061192b826118ea565b602082019050919050565b6000602082019050818103600083015261194f81611913565b9050919050565b60006119618261129c565b915061196c8361129c565b9250817fffffffffffffffffffffffffffffffffffffffffffffffffffffffffffffffff04831182151516156119a5576119a46116ba565b5b828202905092915050565b60006119bb8261129c565b91506119c68361129c565b9250827fffffffffffffffffffffffffffffffffffffffffffffffffffffffffffffffff038211156119fb576119fa6116ba565b5b828201905092915050565b6000611a118261129c565b91506000821415611a2557611a246116ba565b5b600182039050919050565b7f537472696e67733a20686578206c656e67746820696e73756666696369656e74600082015250565b6000611a66602083611436565b9150611a7182611a30565b602082019050919050565b60006020820190508181036000830152611a9581611a59565b905091905056fea264697066735822122050ec1e831e35c940befde257ec13fa0d8374cff0f9a753b30f85714320fcfe9564736f6c63430008090033608060405234801561001057600080fd5b5061165f806100206000396000f3fe608060405234801561001057600080fd5b506004361061009e5760003560e01c806391d148541161006657806391d148541461016b578063a217fddf1461019b578063c4d66de8146101b9578063ca15c873146101d5578063d547741f146102055761009e565b806301ffc9a7146100a3578063248a9ca3146100d35780632f2ff15d1461010357806336568abe1461011f5780639010d07c1461013b575b600080fd5b6100bd60048036038101906100b89190610e81565b610221565b6040516100ca9190610ec9565b60405180910390f35b6100ed60048036038101906100e89190610f1a565b61029b565b6040516100fa9190610f56565b60405180910390f35b61011d60048036038101906101189190610fcf565b6102bb565b005b61013960048036038101906101349190610fcf565b6102e4565b005b61015560048036038101906101509190611045565b610367565b6040516101629190611094565b60405180910390f35b61018560048036038101906101809190610fcf565b610396565b6040516101929190610ec9565b60405180910390f35b6101a3610401565b6040516101b09190610f56565b60405180910390f35b6101d360048036038101906101ce91906110af565b610408565b005b6101ef60048036038101906101ea9190610f1a565b610534565b6040516101fc91906110eb565b60405180910390f35b61021f600480360381019061021a9190610fcf565b610558565b005b60007f5a05180f000000000000000000000000000000000000000000000000000000007bffffffffffffffffffffffffffffffffffffffffffffffffffffffff1916827bffffffffffffffffffffffffffffffffffffffffffffffffffffffff19161480610294575061029382610581565b5b9050919050565b600060016000838152602001908152602001600020600101549050919050565b6102c48261029b565b6102d5816102d06105fb565b610603565b6102df83836106a0565b505050565b6102ec6105fb565b73ffffffffffffffffffffffffffffffffffffffff168173ffffffffffffffffffffffffffffffffffffffff1614610359576040517f08c379a000000000000000000000000000000000000000000000000000000000815260040161035090611189565b60405180910390fd5b61036382826106d4565b5050565b600061038e826002600086815260200190815260200160002061070890919063ffffffff16565b905092915050565b60006001600084815260200190815260200160002060000160008373ffffffffffffffffffffffffffffffffffffffff1673ffffffffffffffffffffffffffffffffffffffff16815260200190815260200160002060009054906101000a900460ff16905092915050565b6000801b81565b600060019054906101000a900460ff166104305760008054906101000a900460ff1615610439565b610438610722565b5b610478576040517f08c379a000000000000000000000000000000000000000000000000000000000815260040161046f9061121b565b60405180910390fd5b60008060019054906101000a900460ff1615905080156104c8576001600060016101000a81548160ff02191690831515021790555060016000806101000a81548160ff0219169083151502179055505b600073ffffffffffffffffffffffffffffffffffffffff168273ffffffffffffffffffffffffffffffffffffffff16141561050257600080fd5b61050f6000801b83610733565b80156105305760008060016101000a81548160ff0219169083151502179055505b5050565b600061055160026000848152602001908152602001600020610741565b9050919050565b6105618261029b565b6105728161056d6105fb565b610603565b61057c83836106d4565b505050565b60007f7965db0b000000000000000000000000000000000000000000000000000000007bffffffffffffffffffffffffffffffffffffffffffffffffffffffff1916827bffffffffffffffffffffffffffffffffffffffffffffffffffffffff191614806105f457506105f382610756565b5b9050919050565b600033905090565b61060d8282610396565b61069c576106328173ffffffffffffffffffffffffffffffffffffffff1660146107c0565b6106408360001c60206107c0565b60405160200161065192919061134d565b6040516020818303038152906040526040517f08c379a000000000000000000000000000000000000000000000000000000000815260040161069391906113d1565b60405180910390fd5b5050565b6106aa82826109fc565b6106cf8160026000858152602001908152602001600020610adc90919063ffffffff16565b505050565b6106de8282610b0c565b6107038160026000858152602001908152602001600020610bee90919063ffffffff16565b505050565b60006107178360000183610c1e565b60001c905092915050565b600061072d30610c49565b15905090565b61073d82826106a0565b5050565b600061074f82600001610c6c565b9050919050565b60007f01ffc9a7000000000000000000000000000000000000000000000000000000007bffffffffffffffffffffffffffffffffffffffffffffffffffffffff1916827bffffffffffffffffffffffffffffffffffffffffffffffffffffffff1916149050919050565b6060600060028360026107d39190611422565b6107dd919061147c565b67ffffffffffffffff8111156107f6576107f56114d2565b5b6040519080825280601f01601f1916602001820160405280156108285781602001600182028036833780820191505090505b5090507f3000000000000000000000000000000000000000000000000000000000000000816000815181106108605761085f611501565b5b60200101907effffffffffffffffffffffffffffffffffffffffffffffffffffffffffffff1916908160001a9053507f7800000000000000000000000000000000000000000000000000000000000000816001815181106108c4576108c3611501565b5b60200101907effffffffffffffffffffffffffffffffffffffffffffffffffffffffffffff1916908160001a905350600060018460026109049190611422565b61090e919061147c565b90505b60018111156109ae577f3031323334353637383961626364656600000000000000000000000000000000600f8616601081106109505761094f611501565b5b1a60f81b82828151811061096757610966611501565b5b60200101907effffffffffffffffffffffffffffffffffffffffffffffffffffffffffffff1916908160001a905350600485901c9450806109a790611530565b9050610911565b50600084146109f2576040517f08c379a00000000000000000000000000000000000000000000000000000000081526004016109e9906115a6565b60405180910390fd5b8091505092915050565b610a068282610396565b610ad857600180600084815260200190815260200160002060000160008373ffffffffffffffffffffffffffffffffffffffff1673ffffffffffffffffffffffffffffffffffffffff16815260200190815260200160002060006101000a81548160ff021916908315150217905550610a7d6105fb565b73ffffffffffffffffffffffffffffffffffffffff168173ffffffffffffffffffffffffffffffffffffffff16837f2f8788117e7eff1d82e926ec794901d17c78024a50270940304540a733656f0d60405160405180910390a45b5050565b6000610b04836000018373ffffffffffffffffffffffffffffffffffffffff1660001b610c7d565b905092915050565b610b168282610396565b15610bea5760006001600084815260200190815260200160002060000160008373ffffffffffffffffffffffffffffffffffffffff1673ffffffffffffffffffffffffffffffffffffffff16815260200190815260200160002060006101000a81548160ff021916908315150217905550610b8f6105fb565b73ffffffffffffffffffffffffffffffffffffffff168173ffffffffffffffffffffffffffffffffffffffff16837ff6391f5c32d9c69d2a47ea670b442974b53935d1edc7fd64eb21e047a839171b60405160405180910390a45b5050565b6000610c16836000018373ffffffffffffffffffffffffffffffffffffffff1660001b610ced565b905092915050565b6000826000018281548110610c3657610c35611501565b5b9060005260206000200154905092915050565b6000808273ffffffffffffffffffffffffffffffffffffffff163b119050919050565b600081600001805490509050919050565b6000610c898383610e01565b610ce2578260000182908060018154018082558091505060019003906000526020600020016000909190919091505582600001805490508360010160008481526020019081526020016000208190555060019050610ce7565b600090505b92915050565b60008083600101600084815260200190815260200160002054905060008114610df5576000600182610d1f91906115c6565b9050600060018660000180549050610d3791906115c6565b9050818114610da6576000866000018281548110610d5857610d57611501565b5b9060005260206000200154905080876000018481548110610d7c57610d7b611501565b5b90600052602060002001819055508387600101600083815260200190815260200160002081905550505b85600001805480610dba57610db96115fa565b5b600190038181906000526020600020016000905590558560010160008681526020019081526020016000206000905560019350505050610dfb565b60009150505b92915050565b600080836001016000848152602001908152602001600020541415905092915050565b600080fd5b60007fffffffff0000000000000000000000000000000000000000000000000000000082169050919050565b610e5e81610e29565b8114610e6957600080fd5b50565b600081359050610e7b81610e55565b92915050565b600060208284031215610e9757610e96610e24565b5b6000610ea584828501610e6c565b91505092915050565b60008115159050919050565b610ec381610eae565b82525050565b6000602082019050610ede6000830184610eba565b92915050565b6000819050919050565b610ef781610ee4565b8114610f0257600080fd5b50565b600081359050610f1481610eee565b92915050565b600060208284031215610f3057610f2f610e24565b5b6000610f3e84828501610f05565b91505092915050565b610f5081610ee4565b82525050565b6000602082019050610f6b6000830184610f47565b92915050565b600073ffffffffffffffffffffffffffffffffffffffff82169050919050565b6000610f9c82610f71565b9050919050565b610fac81610f91565b8114610fb757600080fd5b50565b600081359050610fc981610fa3565b92915050565b60008060408385031215610fe657610fe5610e24565b5b6000610ff485828601610f05565b925050602061100585828601610fba565b9150509250929050565b6000819050919050565b6110228161100f565b811461102d57600080fd5b50565b60008135905061103f81611019565b92915050565b6000806040838503121561105c5761105b610e24565b5b600061106a85828601610f05565b925050602061107b85828601611030565b9150509250929050565b61108e81610f91565b82525050565b60006020820190506110a96000830184611085565b92915050565b6000602082840312156110c5576110c4610e24565b5b60006110d384828501610fba565b91505092915050565b6110e58161100f565b82525050565b600060208201905061110060008301846110dc565b92915050565b600082825260208201905092915050565b7f416363657373436f6e74726f6c3a2063616e206f6e6c792072656e6f756e636560008201527f20726f6c657320666f722073656c660000000000000000000000000000000000602082015250565b6000611173602f83611106565b915061117e82611117565b604082019050919050565b600060208201905081810360008301526111a281611166565b9050919050565b7f496e697469616c697a61626c653a20636f6e747261637420697320616c72656160008201527f647920696e697469616c697a6564000000000000000000000000000000000000602082015250565b6000611205602e83611106565b9150611210826111a9565b604082019050919050565b60006020820190508181036000830152611234816111f8565b9050919050565b600081905092915050565b7f416363657373436f6e74726f6c3a206163636f756e7420000000000000000000600082015250565b600061127c60178361123b565b915061128782611246565b601782019050919050565b600081519050919050565b60005b838110156112bb5780820151818401526020810190506112a0565b838111156112ca576000848401525b50505050565b60006112db82611292565b6112e5818561123b565b93506112f581856020860161129d565b80840191505092915050565b7f206973206d697373696e6720726f6c6520000000000000000000000000000000600082015250565b600061133760118361123b565b915061134282611301565b601182019050919050565b60006113588261126f565b915061136482856112d0565b915061136f8261132a565b915061137b82846112d0565b91508190509392505050565b6000601f19601f8301169050919050565b60006113a382611292565b6113ad8185611106565b93506113bd81856020860161129d565b6113c681611387565b840191505092915050565b600060208201905081810360008301526113eb8184611398565b905092915050565b7f4e487b7100000000000000000000000000000000000000000000000000000000600052601160045260246000fd5b600061142d8261100f565b91506114388361100f565b9250817fffffffffffffffffffffffffffffffffffffffffffffffffffffffffffffffff0483118215151615611471576114706113f3565b5b828202905092915050565b60006114878261100f565b91506114928361100f565b9250827fffffffffffffffffffffffffffffffffffffffffffffffffffffffffffffffff038211156114c7576114c66113f3565b5b828201905092915050565b7f4e487b7100000000000000000000000000000000000000000000000000000000600052604160045260246000fd5b7f4e487b7100000000000000000000000000000000000000000000000000000000600052603260045260246000fd5b600061153b8261100f565b9150600082141561154f5761154e6113f3565b5b600182039050919050565b7f537472696e67733a20686578206c656e67746820696e73756666696369656e74600082015250565b6000611590602083611106565b915061159b8261155a565b602082019050919050565b600060208201905081810360008301526115bf81611583565b9050919050565b60006115d18261100f565b91506115dc8361100f565b9250828210156115ef576115ee6113f3565b5b828203905092915050565b7f4e487b7100000000000000000000000000000000000000000000000000000000600052603160045260246000fdfea2646970667358221220e1123cfca5956be69dba68240610cc3f7b278f5d32e5e680b0db4be50a6c04ec64736f6c63430008090033",
  "linkReferences": {},
  "deployedLinkReferences": {}
}