{
  "_format": "hh-sol-artifact-1",
  "contractName": "Contract",
  "sourceName": "contracts/Contract.sol",
  "abi": [
    {
      "anonymous": false,
      "inputs": [
        {
          "indexed": true,
          "internalType": "address",
          "name": "previousOwner",
          "type": "address"
        },
        {
          "indexed": true,
          "internalType": "address",
          "name": "newOwner",
          "type": "address"
        }
      ],
      "name": "OwnershipTransferred",
      "type": "event"
    },
    {
      "anonymous": false,
      "inputs": [
        {
          "indexed": true,
          "internalType": "bytes32",
          "name": "role",
          "type": "bytes32"
        },
        {
          "indexed": true,
          "internalType": "bytes32",
          "name": "previousAdminRole",
          "type": "bytes32"
        },
        {
          "indexed": true,
          "internalType": "bytes32",
          "name": "newAdminRole",
          "type": "bytes32"
        }
      ],
      "name": "RoleAdminChanged",
      "type": "event"
    },
    {
      "anonymous": false,
      "inputs": [
        {
          "indexed": true,
          "internalType": "bytes32",
          "name": "role",
          "type": "bytes32"
        },
        {
          "indexed": true,
          "internalType": "address",
          "name": "account",
          "type": "address"
        },
        {
          "indexed": true,
          "internalType": "address",
          "name": "sender",
          "type": "address"
        }
      ],
      "name": "RoleGranted",
      "type": "event"
    },
    {
      "anonymous": false,
      "inputs": [
        {
          "indexed": true,
          "internalType": "bytes32",
          "name": "role",
          "type": "bytes32"
        },
        {
          "indexed": true,
          "internalType": "address",
          "name": "account",
          "type": "address"
        },
        {
          "indexed": true,
          "internalType": "address",
          "name": "sender",
          "type": "address"
        }
      ],
      "name": "RoleRevoked",
      "type": "event"
    },
    {
      "inputs": [],
      "name": "DEFAULT_ADMIN_ROLE",
      "outputs": [
        {
          "internalType": "bytes32",
          "name": "",
          "type": "bytes32"
        }
      ],
      "stateMutability": "view",
      "type": "function"
    },
    {
      "inputs": [
        {
          "internalType": "bytes32",
          "name": "role",
          "type": "bytes32"
        }
      ],
      "name": "getRoleAdmin",
      "outputs": [
        {
          "internalType": "bytes32",
          "name": "",
          "type": "bytes32"
        }
      ],
      "stateMutability": "view",
      "type": "function"
    },
    {
      "inputs": [
        {
          "internalType": "bytes32",
          "name": "role",
          "type": "bytes32"
        },
        {
          "internalType": "uint256",
          "name": "index",
          "type": "uint256"
        }
      ],
      "name": "getRoleMember",
      "outputs": [
        {
          "internalType": "address",
          "name": "",
          "type": "address"
        }
      ],
      "stateMutability": "view",
      "type": "function"
    },
    {
      "inputs": [
        {
          "internalType": "bytes32",
          "name": "role",
          "type": "bytes32"
        }
      ],
      "name": "getRoleMemberCount",
      "outputs": [
        {
          "internalType": "uint256",
          "name": "",
          "type": "uint256"
        }
      ],
      "stateMutability": "view",
      "type": "function"
    },
    {
      "inputs": [
        {
          "internalType": "bytes32",
          "name": "role",
          "type": "bytes32"
        },
        {
          "internalType": "address",
          "name": "account",
          "type": "address"
        }
      ],
      "name": "grantRole",
      "outputs": [],
      "stateMutability": "nonpayable",
      "type": "function"
    },
    {
      "inputs": [
        {
          "internalType": "bytes32",
          "name": "role",
          "type": "bytes32"
        },
        {
          "internalType": "address",
          "name": "account",
          "type": "address"
        }
      ],
      "name": "hasRole",
      "outputs": [
        {
          "internalType": "bool",
          "name": "",
          "type": "bool"
        }
      ],
      "stateMutability": "view",
      "type": "function"
    },
    {
      "inputs": [
        {
          "internalType": "address",
          "name": "_creator",
          "type": "address"
        }
      ],
      "name": "initialize",
      "outputs": [],
      "stateMutability": "nonpayable",
      "type": "function"
    },
    {
      "inputs": [],
      "name": "owner",
      "outputs": [
        {
          "internalType": "address",
          "name": "",
          "type": "address"
        }
      ],
      "stateMutability": "view",
      "type": "function"
    },
    {
      "inputs": [],
      "name": "renounceOwnership",
      "outputs": [],
      "stateMutability": "nonpayable",
      "type": "function"
    },
    {
      "inputs": [
        {
          "internalType": "bytes32",
          "name": "role",
          "type": "bytes32"
        },
        {
          "internalType": "address",
          "name": "account",
          "type": "address"
        }
      ],
      "name": "renounceRole",
      "outputs": [],
      "stateMutability": "nonpayable",
      "type": "function"
    },
    {
      "inputs": [
        {
          "internalType": "bytes32",
          "name": "role",
          "type": "bytes32"
        },
        {
          "internalType": "address",
          "name": "account",
          "type": "address"
        }
      ],
      "name": "revokeRole",
      "outputs": [],
      "stateMutability": "nonpayable",
      "type": "function"
    },
    {
      "inputs": [
        {
          "internalType": "bytes4",
          "name": "interfaceId",
          "type": "bytes4"
        }
      ],
      "name": "supportsInterface",
      "outputs": [
        {
          "internalType": "bool",
          "name": "",
          "type": "bool"
        }
      ],
      "stateMutability": "view",
      "type": "function"
    },
    {
      "inputs": [
        {
          "internalType": "address",
          "name": "newOwner",
          "type": "address"
        }
      ],
      "name": "transferOwnership",
      "outputs": [],
      "stateMutability": "nonpayable",
      "type": "function"
    }
  ],
  "bytecode": "0x608060405234801561001057600080fd5b5061002d61002261003260201b60201c565b61003a60201b60201c565b610100565b600033905090565b6000600360009054906101000a900473ffffffffffffffffffffffffffffffffffffffff16905081600360006101000a81548173ffffffffffffffffffffffffffffffffffffffff021916908373ffffffffffffffffffffffffffffffffffffffff1602179055508173ffffffffffffffffffffffffffffffffffffffff168173ffffffffffffffffffffffffffffffffffffffff167f8be0079c531659141344cd1fd0a4f28419497f9722a3daafe3b4186f6b6457e060405160405180910390a35050565b611a308061010f6000396000f3fe608060405234801561001057600080fd5b50600436106100cf5760003560e01c80639010d07c1161008c578063c4d66de811610066578063c4d66de814610212578063ca15c8731461022e578063d547741f1461025e578063f2fde38b1461027a576100cf565b80639010d07c1461019457806391d14854146101c4578063a217fddf146101f4576100cf565b806301ffc9a7146100d4578063248a9ca3146101045780632f2ff15d1461013457806336568abe14610150578063715018a61461016c5780638da5cb5b14610176575b600080fd5b6100ee60048036038101906100e99190611154565b610296565b6040516100fb919061119c565b60405180910390f35b61011e600480360381019061011991906111ed565b610310565b60405161012b9190611229565b60405180910390f35b61014e600480360381019061014991906112a2565b610330565b005b61016a600480360381019061016591906112a2565b610359565b005b6101746103dc565b005b61017e610464565b60405161018b91906112f1565b60405180910390f35b6101ae60048036038101906101a99190611342565b61048e565b6040516101bb91906112f1565b60405180910390f35b6101de60048036038101906101d991906112a2565b6104bd565b6040516101eb919061119c565b60405180910390f35b6101fc610528565b6040516102099190611229565b60405180910390f35b61022c60048036038101906102279190611382565b61052f565b005b610248600480360381019061024391906111ed565b610657565b60405161025591906113be565b60405180910390f35b610278600480360381019061027391906112a2565b61067b565b005b610294600480360381019061028f9190611382565b6106a4565b005b60007f5a05180f000000000000000000000000000000000000000000000000000000007bffffffffffffffffffffffffffffffffffffffffffffffffffffffff1916827bffffffffffffffffffffffffffffffffffffffffffffffffffffffff1916148061030957506103088261079c565b5b9050919050565b600060016000838152602001908152602001600020600101549050919050565b61033982610310565b61034a81610345610816565b61081e565b61035483836108bb565b505050565b610361610816565b73ffffffffffffffffffffffffffffffffffffffff168173ffffffffffffffffffffffffffffffffffffffff16146103ce576040517f08c379a00000000000000000000000000000000000000000000000000000000081526004016103c59061145c565b60405180910390fd5b6103d882826108ef565b5050565b6103e4610816565b73ffffffffffffffffffffffffffffffffffffffff16610402610464565b73ffffffffffffffffffffffffffffffffffffffff1614610458576040517f08c379a000000000000000000000000000000000000000000000000000000000815260040161044f906114c8565b60405180910390fd5b6104626000610923565b565b6000600360009054906101000a900473ffffffffffffffffffffffffffffffffffffffff16905090565b60006104b582600260008681526020019081526020016000206109e990919063ffffffff16565b905092915050565b60006001600084815260200190815260200160002060000160008373ffffffffffffffffffffffffffffffffffffffff1673ffffffffffffffffffffffffffffffffffffffff16815260200190815260200160002060009054906101000a900460ff16905092915050565b6000801b81565b600060019054906101000a900460ff166105575760008054906101000a900460ff1615610560565b61055f610a03565b5b61059f576040517f08c379a00000000000000000000000000000000000000000000000000000000081526004016105969061155a565b60405180910390fd5b60008060019054906101000a900460ff1615905080156105ef576001600060016101000a81548160ff02191690831515021790555060016000806101000a81548160ff0219169083151502179055505b600073ffffffffffffffffffffffffffffffffffffffff168273ffffffffffffffffffffffffffffffffffffffff16141561062957600080fd5b61063282610923565b80156106535760008060016101000a81548160ff0219169083151502179055505b5050565b600061067460026000848152602001908152602001600020610a14565b9050919050565b61068482610310565b61069581610690610816565b61081e565b61069f83836108ef565b505050565b6106ac610816565b73ffffffffffffffffffffffffffffffffffffffff166106ca610464565b73ffffffffffffffffffffffffffffffffffffffff1614610720576040517f08c379a0000000000000000000000000000000000000000000000000000000008152600401610717906114c8565b60405180910390fd5b600073ffffffffffffffffffffffffffffffffffffffff168173ffffffffffffffffffffffffffffffffffffffff161415610790576040517f08c379a0000000000000000000000000000000000000000000000000000000008152600401610787906115ec565b60405180910390fd5b61079981610923565b50565b60007f7965db0b000000000000000000000000000000000000000000000000000000007bffffffffffffffffffffffffffffffffffffffffffffffffffffffff1916827bffffffffffffffffffffffffffffffffffffffffffffffffffffffff1916148061080f575061080e82610a29565b5b9050919050565b600033905090565b61082882826104bd565b6108b75761084d8173ffffffffffffffffffffffffffffffffffffffff166014610a93565b61085b8360001c6020610a93565b60405160200161086c92919061171e565b6040516020818303038152906040526040517f08c379a00000000000000000000000000000000000000000000000000000000081526004016108ae91906117a2565b60405180910390fd5b5050565b6108c58282610ccf565b6108ea8160026000858152602001908152602001600020610daf90919063ffffffff16565b505050565b6108f98282610ddf565b61091e8160026000858152602001908152602001600020610ec190919063ffffffff16565b505050565b6000600360009054906101000a900473ffffffffffffffffffffffffffffffffffffffff16905081600360006101000a81548173ffffffffffffffffffffffffffffffffffffffff021916908373ffffffffffffffffffffffffffffffffffffffff1602179055508173ffffffffffffffffffffffffffffffffffffffff168173ffffffffffffffffffffffffffffffffffffffff167f8be0079c531659141344cd1fd0a4f28419497f9722a3daafe3b4186f6b6457e060405160405180910390a35050565b60006109f88360000183610ef1565b60001c905092915050565b6000610a0e30610f1c565b15905090565b6000610a2282600001610f3f565b9050919050565b60007f01ffc9a7000000000000000000000000000000000000000000000000000000007bffffffffffffffffffffffffffffffffffffffffffffffffffffffff1916827bffffffffffffffffffffffffffffffffffffffffffffffffffffffff1916149050919050565b606060006002836002610aa691906117f3565b610ab0919061184d565b67ffffffffffffffff811115610ac957610ac86118a3565b5b6040519080825280601f01601f191660200182016040528015610afb5781602001600182028036833780820191505090505b5090507f300000000000000000000000000000000000000000000000000000000000000081600081518110610b3357610b326118d2565b5b60200101907effffffffffffffffffffffffffffffffffffffffffffffffffffffffffffff1916908160001a9053507f780000000000000000000000000000000000000000000000000000000000000081600181518110610b9757610b966118d2565b5b60200101907effffffffffffffffffffffffffffffffffffffffffffffffffffffffffffff1916908160001a90535060006001846002610bd791906117f3565b610be1919061184d565b90505b6001811115610c81577f3031323334353637383961626364656600000000000000000000000000000000600f861660108110610c2357610c226118d2565b5b1a60f81b828281518110610c3a57610c396118d2565b5b60200101907effffffffffffffffffffffffffffffffffffffffffffffffffffffffffffff1916908160001a905350600485901c945080610c7a90611901565b9050610be4565b5060008414610cc5576040517f08c379a0000000000000000000000000000000000000000000000000000000008152600401610cbc90611977565b60405180910390fd5b8091505092915050565b610cd982826104bd565b610dab57600180600084815260200190815260200160002060000160008373ffffffffffffffffffffffffffffffffffffffff1673ffffffffffffffffffffffffffffffffffffffff16815260200190815260200160002060006101000a81548160ff021916908315150217905550610d50610816565b73ffffffffffffffffffffffffffffffffffffffff168173ffffffffffffffffffffffffffffffffffffffff16837f2f8788117e7eff1d82e926ec794901d17c78024a50270940304540a733656f0d60405160405180910390a45b5050565b6000610dd7836000018373ffffffffffffffffffffffffffffffffffffffff1660001b610f50565b905092915050565b610de982826104bd565b15610ebd5760006001600084815260200190815260200160002060000160008373ffffffffffffffffffffffffffffffffffffffff1673ffffffffffffffffffffffffffffffffffffffff16815260200190815260200160002060006101000a81548160ff021916908315150217905550610e62610816565b73ffffffffffffffffffffffffffffffffffffffff168173ffffffffffffffffffffffffffffffffffffffff16837ff6391f5c32d9c69d2a47ea670b442974b53935d1edc7fd64eb21e047a839171b60405160405180910390a45b5050565b6000610ee9836000018373ffffffffffffffffffffffffffffffffffffffff1660001b610fc0565b905092915050565b6000826000018281548110610f0957610f086118d2565b5b9060005260206000200154905092915050565b6000808273ffffffffffffffffffffffffffffffffffffffff163b119050919050565b600081600001805490509050919050565b6000610f5c83836110d4565b610fb5578260000182908060018154018082558091505060019003906000526020600020016000909190919091505582600001805490508360010160008481526020019081526020016000208190555060019050610fba565b600090505b92915050565b600080836001016000848152602001908152602001600020549050600081146110c8576000600182610ff29190611997565b905060006001866000018054905061100a9190611997565b905081811461107957600086600001828154811061102b5761102a6118d2565b5b906000526020600020015490508087600001848154811061104f5761104e6118d2565b5b90600052602060002001819055508387600101600083815260200190815260200160002081905550505b8560000180548061108d5761108c6119cb565b5b6001900381819060005260206000200160009055905585600101600086815260200190815260200160002060009055600193505050506110ce565b60009150505b92915050565b600080836001016000848152602001908152602001600020541415905092915050565b600080fd5b60007fffffffff0000000000000000000000000000000000000000000000000000000082169050919050565b611131816110fc565b811461113c57600080fd5b50565b60008135905061114e81611128565b92915050565b60006020828403121561116a576111696110f7565b5b60006111788482850161113f565b91505092915050565b60008115159050919050565b61119681611181565b82525050565b60006020820190506111b1600083018461118d565b92915050565b6000819050919050565b6111ca816111b7565b81146111d557600080fd5b50565b6000813590506111e7816111c1565b92915050565b600060208284031215611203576112026110f7565b5b6000611211848285016111d8565b91505092915050565b611223816111b7565b82525050565b600060208201905061123e600083018461121a565b92915050565b600073ffffffffffffffffffffffffffffffffffffffff82169050919050565b600061126f82611244565b9050919050565b61127f81611264565b811461128a57600080fd5b50565b60008135905061129c81611276565b92915050565b600080604083850312156112b9576112b86110f7565b5b60006112c7858286016111d8565b92505060206112d88582860161128d565b9150509250929050565b6112eb81611264565b82525050565b600060208201905061130660008301846112e2565b92915050565b6000819050919050565b61131f8161130c565b811461132a57600080fd5b50565b60008135905061133c81611316565b92915050565b60008060408385031215611359576113586110f7565b5b6000611367858286016111d8565b92505060206113788582860161132d565b9150509250929050565b600060208284031215611398576113976110f7565b5b60006113a68482850161128d565b91505092915050565b6113b88161130c565b82525050565b60006020820190506113d360008301846113af565b92915050565b600082825260208201905092915050565b7f416363657373436f6e74726f6c3a2063616e206f6e6c792072656e6f756e636560008201527f20726f6c657320666f722073656c660000000000000000000000000000000000602082015250565b6000611446602f836113d9565b9150611451826113ea565b604082019050919050565b6000602082019050818103600083015261147581611439565b9050919050565b7f4f776e61626c653a2063616c6c6572206973206e6f7420746865206f776e6572600082015250565b60006114b26020836113d9565b91506114bd8261147c565b602082019050919050565b600060208201905081810360008301526114e1816114a5565b9050919050565b7f496e697469616c697a61626c653a20636f6e747261637420697320616c72656160008201527f647920696e697469616c697a6564000000000000000000000000000000000000602082015250565b6000611544602e836113d9565b915061154f826114e8565b604082019050919050565b6000602082019050818103600083015261157381611537565b9050919050565b7f4f776e61626c653a206e6577206f776e657220697320746865207a65726f206160008201527f6464726573730000000000000000000000000000000000000000000000000000602082015250565b60006115d66026836113d9565b91506115e18261157a565b604082019050919050565b60006020820190508181036000830152611605816115c9565b9050919050565b600081905092915050565b7f416363657373436f6e74726f6c3a206163636f756e7420000000000000000000600082015250565b600061164d60178361160c565b915061165882611617565b601782019050919050565b600081519050919050565b60005b8381101561168c578082015181840152602081019050611671565b8381111561169b576000848401525b50505050565b60006116ac82611663565b6116b6818561160c565b93506116c681856020860161166e565b80840191505092915050565b7f206973206d697373696e6720726f6c6520000000000000000000000000000000600082015250565b600061170860118361160c565b9150611713826116d2565b601182019050919050565b600061172982611640565b915061173582856116a1565b9150611740826116fb565b915061174c82846116a1565b91508190509392505050565b6000601f19601f8301169050919050565b600061177482611663565b61177e81856113d9565b935061178e81856020860161166e565b61179781611758565b840191505092915050565b600060208201905081810360008301526117bc8184611769565b905092915050565b7f4e487b7100000000000000000000000000000000000000000000000000000000600052601160045260246000fd5b60006117fe8261130c565b91506118098361130c565b9250817fffffffffffffffffffffffffffffffffffffffffffffffffffffffffffffffff0483118215151615611842576118416117c4565b5b828202905092915050565b60006118588261130c565b91506118638361130c565b9250827fffffffffffffffffffffffffffffffffffffffffffffffffffffffffffffffff03821115611898576118976117c4565b5b828201905092915050565b7f4e487b7100000000000000000000000000000000000000000000000000000000600052604160045260246000fd5b7f4e487b7100000000000000000000000000000000000000000000000000000000600052603260045260246000fd5b600061190c8261130c565b915060008214156119205761191f6117c4565b5b600182039050919050565b7f537472696e67733a20686578206c656e67746820696e73756666696369656e74600082015250565b60006119616020836113d9565b915061196c8261192b565b602082019050919050565b6000602082019050818103600083015261199081611954565b9050919050565b60006119a28261130c565b91506119ad8361130c565b9250828210156119c0576119bf6117c4565b5b828203905092915050565b7f4e487b7100000000000000000000000000000000000000000000000000000000600052603160045260246000fdfea26469706673582212209168155e15b7051386e119b73dc9008699ada169b7f33976ea71456b7a041a9564736f6c63430008090033",
  "linkReferences": {},
  "deployedLinkReferences": {}
}