{
  "_format": "hh-sol-artifact-1",
  "contractName": "Contract",
  "sourceName": "contracts/Contract.sol",
  "abi": [
    {
      "anonymous": false,
      "inputs": [
        {
          "indexed": true,
          "internalType": "bytes32",
          "name": "role",
          "type": "bytes32"
        },
        {
          "indexed": true,
          "internalType": "bytes32",
          "name": "previousAdminRole",
          "type": "bytes32"
        },
        {
          "indexed": true,
          "internalType": "bytes32",
          "name": "newAdminRole",
          "type": "bytes32"
        }
      ],
      "name": "RoleAdminChanged",
      "type": "event"
    },
    {
      "anonymous": false,
      "inputs": [
        {
          "indexed": true,
          "internalType": "bytes32",
          "name": "role",
          "type": "bytes32"
        },
        {
          "indexed": true,
          "internalType": "address",
          "name": "account",
          "type": "address"
        },
        {
          "indexed": true,
          "internalType": "address",
          "name": "sender",
          "type": "address"
        }
      ],
      "name": "RoleGranted",
      "type": "event"
    },
    {
      "anonymous": false,
      "inputs": [
        {
          "indexed": true,
          "internalType": "bytes32",
          "name": "role",
          "type": "bytes32"
        },
        {
          "indexed": true,
          "internalType": "address",
          "name": "account",
          "type": "address"
        },
        {
          "indexed": true,
          "internalType": "address",
          "name": "sender",
          "type": "address"
        }
      ],
      "name": "RoleRevoked",
      "type": "event"
    },
    {
      "inputs": [],
      "name": "DEFAULT_ADMIN_ROLE",
      "outputs": [
        {
          "internalType": "bytes32",
          "name": "",
          "type": "bytes32"
        }
      ],
      "stateMutability": "view",
      "type": "function"
    },
    {
      "inputs": [
        {
          "internalType": "bytes32",
          "name": "role",
          "type": "bytes32"
        }
      ],
      "name": "getRoleAdmin",
      "outputs": [
        {
          "internalType": "bytes32",
          "name": "",
          "type": "bytes32"
        }
      ],
      "stateMutability": "view",
      "type": "function"
    },
    {
      "inputs": [
        {
          "internalType": "bytes32",
          "name": "role",
          "type": "bytes32"
        },
        {
          "internalType": "uint256",
          "name": "index",
          "type": "uint256"
        }
      ],
      "name": "getRoleMember",
      "outputs": [
        {
          "internalType": "address",
          "name": "",
          "type": "address"
        }
      ],
      "stateMutability": "view",
      "type": "function"
    },
    {
      "inputs": [
        {
          "internalType": "bytes32",
          "name": "role",
          "type": "bytes32"
        }
      ],
      "name": "getRoleMemberCount",
      "outputs": [
        {
          "internalType": "uint256",
          "name": "",
          "type": "uint256"
        }
      ],
      "stateMutability": "view",
      "type": "function"
    },
    {
      "inputs": [
        {
          "internalType": "bytes32",
          "name": "role",
          "type": "bytes32"
        },
        {
          "internalType": "address",
          "name": "account",
          "type": "address"
        }
      ],
      "name": "grantRole",
      "outputs": [],
      "stateMutability": "nonpayable",
      "type": "function"
    },
    {
      "inputs": [
        {
          "internalType": "bytes32",
          "name": "role",
          "type": "bytes32"
        },
        {
          "internalType": "address",
          "name": "account",
          "type": "address"
        }
      ],
      "name": "hasRole",
      "outputs": [
        {
          "internalType": "bool",
          "name": "",
          "type": "bool"
        }
      ],
      "stateMutability": "view",
      "type": "function"
    },
    {
      "inputs": [
        {
          "internalType": "address",
          "name": "_admin",
          "type": "address"
        }
      ],
      "name": "initialize",
      "outputs": [],
      "stateMutability": "nonpayable",
      "type": "function"
    },
    {
      "inputs": [
        {
          "internalType": "bytes32",
          "name": "role",
          "type": "bytes32"
        },
        {
          "internalType": "address",
          "name": "account",
          "type": "address"
        }
      ],
      "name": "renounceRole",
      "outputs": [],
      "stateMutability": "nonpayable",
      "type": "function"
    },
    {
      "inputs": [
        {
          "internalType": "bytes32",
          "name": "role",
          "type": "bytes32"
        },
        {
          "internalType": "address",
          "name": "account",
          "type": "address"
        }
      ],
      "name": "revokeRole",
      "outputs": [],
      "stateMutability": "nonpayable",
      "type": "function"
    },
    {
      "inputs": [
        {
          "internalType": "bytes4",
          "name": "interfaceId",
          "type": "bytes4"
        }
      ],
      "name": "supportsInterface",
      "outputs": [
        {
          "internalType": "bool",
          "name": "",
          "type": "bool"
        }
      ],
      "stateMutability": "view",
      "type": "function"
    }
  ],
  "bytecode": "0x608060405234801561001057600080fd5b5061175f806100206000396000f3fe608060405234801561001057600080fd5b506004361061009e5760003560e01c806391d148541161006657806391d148541461016b578063a217fddf1461019b578063c4d66de8146101b9578063ca15c873146101d5578063d547741f146102055761009e565b806301ffc9a7146100a3578063248a9ca3146100d35780632f2ff15d1461010357806336568abe1461011f5780639010d07c1461013b575b600080fd5b6100bd60048036038101906100b89190610f81565b610221565b6040516100ca9190610fc9565b60405180910390f35b6100ed60048036038101906100e8919061101a565b61029b565b6040516100fa9190611056565b60405180910390f35b61011d600480360381019061011891906110cf565b6102bb565b005b610139600480360381019061013491906110cf565b6102e4565b005b61015560048036038101906101509190611145565b610367565b6040516101629190611194565b60405180910390f35b610185600480360381019061018091906110cf565b610396565b6040516101929190610fc9565b60405180910390f35b6101a3610401565b6040516101b09190611056565b60405180910390f35b6101d360048036038101906101ce91906111af565b610408565b005b6101ef60048036038101906101ea919061101a565b610572565b6040516101fc91906111eb565b60405180910390f35b61021f600480360381019061021a91906110cf565b610596565b005b60007f5a05180f000000000000000000000000000000000000000000000000000000007bffffffffffffffffffffffffffffffffffffffffffffffffffffffff1916827bffffffffffffffffffffffffffffffffffffffffffffffffffffffff191614806102945750610293826105bf565b5b9050919050565b600060016000838152602001908152602001600020600101549050919050565b6102c48261029b565b6102d5816102d0610639565b610641565b6102df83836106de565b505050565b6102ec610639565b73ffffffffffffffffffffffffffffffffffffffff168173ffffffffffffffffffffffffffffffffffffffff1614610359576040517f08c379a000000000000000000000000000000000000000000000000000000000815260040161035090611289565b60405180910390fd5b6103638282610712565b5050565b600061038e826002600086815260200190815260200160002061074690919063ffffffff16565b905092915050565b60006001600084815260200190815260200160002060000160008373ffffffffffffffffffffffffffffffffffffffff1673ffffffffffffffffffffffffffffffffffffffff16815260200190815260200160002060009054906101000a900460ff16905092915050565b6000801b81565b600060019054906101000a900460ff166104305760008054906101000a900460ff1615610439565b610438610760565b5b610478576040517f08c379a000000000000000000000000000000000000000000000000000000000815260040161046f9061131b565b60405180910390fd5b60008060019054906101000a900460ff1615905080156104c8576001600060016101000a81548160ff02191690831515021790555060016000806101000a81548160ff0219169083151502179055505b600073ffffffffffffffffffffffffffffffffffffffff163373ffffffffffffffffffffffffffffffffffffffff16141561050257600080fd5b61050f6000801b83610771565b61054d6040518060400160405280601581526020017f4465706c6f79696e67206120436f6e74726163742e000000000000000000000081525061077f565b801561056e5760008060016101000a81548160ff0219169083151502179055505b5050565b600061058f60026000848152602001908152602001600020610818565b9050919050565b61059f8261029b565b6105b0816105ab610639565b610641565b6105ba8383610712565b505050565b60007f7965db0b000000000000000000000000000000000000000000000000000000007bffffffffffffffffffffffffffffffffffffffffffffffffffffffff1916827bffffffffffffffffffffffffffffffffffffffffffffffffffffffff1916148061063257506106318261082d565b5b9050919050565b600033905090565b61064b8282610396565b6106da576106708173ffffffffffffffffffffffffffffffffffffffff166014610897565b61067e8360001c6020610897565b60405160200161068f92919061144d565b6040516020818303038152906040526040517f08c379a00000000000000000000000000000000000000000000000000000000081526004016106d191906114d1565b60405180910390fd5b5050565b6106e88282610ad3565b61070d8160026000858152602001908152602001600020610bb390919063ffffffff16565b505050565b61071c8282610be3565b6107418160026000858152602001908152602001600020610cc590919063ffffffff16565b505050565b60006107558360000183610cf5565b60001c905092915050565b600061076b30610d20565b15905090565b61077b82826106de565b5050565b6108158160405160240161079391906114d1565b6040516020818303038152906040527f41304fac000000000000000000000000000000000000000000000000000000007bffffffffffffffffffffffffffffffffffffffffffffffffffffffff19166020820180517bffffffffffffffffffffffffffffffffffffffffffffffffffffffff8381831617835250505050610d43565b50565b600061082682600001610d6c565b9050919050565b60007f01ffc9a7000000000000000000000000000000000000000000000000000000007bffffffffffffffffffffffffffffffffffffffffffffffffffffffff1916827bffffffffffffffffffffffffffffffffffffffffffffffffffffffff1916149050919050565b6060600060028360026108aa9190611522565b6108b4919061157c565b67ffffffffffffffff8111156108cd576108cc6115d2565b5b6040519080825280601f01601f1916602001820160405280156108ff5781602001600182028036833780820191505090505b5090507f30000000000000000000000000000000000000000000000000000000000000008160008151811061093757610936611601565b5b60200101907effffffffffffffffffffffffffffffffffffffffffffffffffffffffffffff1916908160001a9053507f78000000000000000000000000000000000000000000000000000000000000008160018151811061099b5761099a611601565b5b60200101907effffffffffffffffffffffffffffffffffffffffffffffffffffffffffffff1916908160001a905350600060018460026109db9190611522565b6109e5919061157c565b90505b6001811115610a85577f3031323334353637383961626364656600000000000000000000000000000000600f861660108110610a2757610a26611601565b5b1a60f81b828281518110610a3e57610a3d611601565b5b60200101907effffffffffffffffffffffffffffffffffffffffffffffffffffffffffffff1916908160001a905350600485901c945080610a7e90611630565b90506109e8565b5060008414610ac9576040517f08c379a0000000000000000000000000000000000000000000000000000000008152600401610ac0906116a6565b60405180910390fd5b8091505092915050565b610add8282610396565b610baf57600180600084815260200190815260200160002060000160008373ffffffffffffffffffffffffffffffffffffffff1673ffffffffffffffffffffffffffffffffffffffff16815260200190815260200160002060006101000a81548160ff021916908315150217905550610b54610639565b73ffffffffffffffffffffffffffffffffffffffff168173ffffffffffffffffffffffffffffffffffffffff16837f2f8788117e7eff1d82e926ec794901d17c78024a50270940304540a733656f0d60405160405180910390a45b5050565b6000610bdb836000018373ffffffffffffffffffffffffffffffffffffffff1660001b610d7d565b905092915050565b610bed8282610396565b15610cc15760006001600084815260200190815260200160002060000160008373ffffffffffffffffffffffffffffffffffffffff1673ffffffffffffffffffffffffffffffffffffffff16815260200190815260200160002060006101000a81548160ff021916908315150217905550610c66610639565b73ffffffffffffffffffffffffffffffffffffffff168173ffffffffffffffffffffffffffffffffffffffff16837ff6391f5c32d9c69d2a47ea670b442974b53935d1edc7fd64eb21e047a839171b60405160405180910390a45b5050565b6000610ced836000018373ffffffffffffffffffffffffffffffffffffffff1660001b610ded565b905092915050565b6000826000018281548110610d0d57610d0c611601565b5b9060005260206000200154905092915050565b6000808273ffffffffffffffffffffffffffffffffffffffff163b119050919050565b60008151905060006a636f6e736f6c652e6c6f679050602083016000808483855afa5050505050565b600081600001805490509050919050565b6000610d898383610f01565b610de2578260000182908060018154018082558091505060019003906000526020600020016000909190919091505582600001805490508360010160008481526020019081526020016000208190555060019050610de7565b600090505b92915050565b60008083600101600084815260200190815260200160002054905060008114610ef5576000600182610e1f91906116c6565b9050600060018660000180549050610e3791906116c6565b9050818114610ea6576000866000018281548110610e5857610e57611601565b5b9060005260206000200154905080876000018481548110610e7c57610e7b611601565b5b90600052602060002001819055508387600101600083815260200190815260200160002081905550505b85600001805480610eba57610eb96116fa565b5b600190038181906000526020600020016000905590558560010160008681526020019081526020016000206000905560019350505050610efb565b60009150505b92915050565b600080836001016000848152602001908152602001600020541415905092915050565b600080fd5b60007fffffffff0000000000000000000000000000000000000000000000000000000082169050919050565b610f5e81610f29565b8114610f6957600080fd5b50565b600081359050610f7b81610f55565b92915050565b600060208284031215610f9757610f96610f24565b5b6000610fa584828501610f6c565b91505092915050565b60008115159050919050565b610fc381610fae565b82525050565b6000602082019050610fde6000830184610fba565b92915050565b6000819050919050565b610ff781610fe4565b811461100257600080fd5b50565b60008135905061101481610fee565b92915050565b6000602082840312156110305761102f610f24565b5b600061103e84828501611005565b91505092915050565b61105081610fe4565b82525050565b600060208201905061106b6000830184611047565b92915050565b600073ffffffffffffffffffffffffffffffffffffffff82169050919050565b600061109c82611071565b9050919050565b6110ac81611091565b81146110b757600080fd5b50565b6000813590506110c9816110a3565b92915050565b600080604083850312156110e6576110e5610f24565b5b60006110f485828601611005565b9250506020611105858286016110ba565b9150509250929050565b6000819050919050565b6111228161110f565b811461112d57600080fd5b50565b60008135905061113f81611119565b92915050565b6000806040838503121561115c5761115b610f24565b5b600061116a85828601611005565b925050602061117b85828601611130565b9150509250929050565b61118e81611091565b82525050565b60006020820190506111a96000830184611185565b92915050565b6000602082840312156111c5576111c4610f24565b5b60006111d3848285016110ba565b91505092915050565b6111e58161110f565b82525050565b600060208201905061120060008301846111dc565b92915050565b600082825260208201905092915050565b7f416363657373436f6e74726f6c3a2063616e206f6e6c792072656e6f756e636560008201527f20726f6c657320666f722073656c660000000000000000000000000000000000602082015250565b6000611273602f83611206565b915061127e82611217565b604082019050919050565b600060208201905081810360008301526112a281611266565b9050919050565b7f496e697469616c697a61626c653a20636f6e747261637420697320616c72656160008201527f647920696e697469616c697a6564000000000000000000000000000000000000602082015250565b6000611305602e83611206565b9150611310826112a9565b604082019050919050565b60006020820190508181036000830152611334816112f8565b9050919050565b600081905092915050565b7f416363657373436f6e74726f6c3a206163636f756e7420000000000000000000600082015250565b600061137c60178361133b565b915061138782611346565b601782019050919050565b600081519050919050565b60005b838110156113bb5780820151818401526020810190506113a0565b838111156113ca576000848401525b50505050565b60006113db82611392565b6113e5818561133b565b93506113f581856020860161139d565b80840191505092915050565b7f206973206d697373696e6720726f6c6520000000000000000000000000000000600082015250565b600061143760118361133b565b915061144282611401565b601182019050919050565b60006114588261136f565b915061146482856113d0565b915061146f8261142a565b915061147b82846113d0565b91508190509392505050565b6000601f19601f8301169050919050565b60006114a382611392565b6114ad8185611206565b93506114bd81856020860161139d565b6114c681611487565b840191505092915050565b600060208201905081810360008301526114eb8184611498565b905092915050565b7f4e487b7100000000000000000000000000000000000000000000000000000000600052601160045260246000fd5b600061152d8261110f565b91506115388361110f565b9250817fffffffffffffffffffffffffffffffffffffffffffffffffffffffffffffffff0483118215151615611571576115706114f3565b5b828202905092915050565b60006115878261110f565b91506115928361110f565b9250827fffffffffffffffffffffffffffffffffffffffffffffffffffffffffffffffff038211156115c7576115c66114f3565b5b828201905092915050565b7f4e487b7100000000000000000000000000000000000000000000000000000000600052604160045260246000fd5b7f4e487b7100000000000000000000000000000000000000000000000000000000600052603260045260246000fd5b600061163b8261110f565b9150600082141561164f5761164e6114f3565b5b600182039050919050565b7f537472696e67733a20686578206c656e67746820696e73756666696369656e74600082015250565b6000611690602083611206565b915061169b8261165a565b602082019050919050565b600060208201905081810360008301526116bf81611683565b9050919050565b60006116d18261110f565b91506116dc8361110f565b9250828210156116ef576116ee6114f3565b5b828203905092915050565b7f4e487b7100000000000000000000000000000000000000000000000000000000600052603160045260246000fdfea2646970667358221220ee924434439ec9ba873b9f4ce942a3e44ae930627643410eadf2e32ef519513b64736f6c63430008090033",
  "linkReferences": {},
  "deployedLinkReferences": {}
}