{
  "_format": "hh-sol-artifact-1",
  "contractName": "Contract",
  "sourceName": "contracts/Contract.sol",
  "abi": [
    {
      "anonymous": false,
      "inputs": [
        {
          "indexed": true,
          "internalType": "bytes32",
          "name": "role",
          "type": "bytes32"
        },
        {
          "indexed": true,
          "internalType": "bytes32",
          "name": "previousAdminRole",
          "type": "bytes32"
        },
        {
          "indexed": true,
          "internalType": "bytes32",
          "name": "newAdminRole",
          "type": "bytes32"
        }
      ],
      "name": "RoleAdminChanged",
      "type": "event"
    },
    {
      "anonymous": false,
      "inputs": [
        {
          "indexed": true,
          "internalType": "bytes32",
          "name": "role",
          "type": "bytes32"
        },
        {
          "indexed": true,
          "internalType": "address",
          "name": "account",
          "type": "address"
        },
        {
          "indexed": true,
          "internalType": "address",
          "name": "sender",
          "type": "address"
        }
      ],
      "name": "RoleGranted",
      "type": "event"
    },
    {
      "anonymous": false,
      "inputs": [
        {
          "indexed": true,
          "internalType": "bytes32",
          "name": "role",
          "type": "bytes32"
        },
        {
          "indexed": true,
          "internalType": "address",
          "name": "account",
          "type": "address"
        },
        {
          "indexed": true,
          "internalType": "address",
          "name": "sender",
          "type": "address"
        }
      ],
      "name": "RoleRevoked",
      "type": "event"
    },
    {
      "inputs": [],
      "name": "DEFAULT_ADMIN_ROLE",
      "outputs": [
        {
          "internalType": "bytes32",
          "name": "",
          "type": "bytes32"
        }
      ],
      "stateMutability": "view",
      "type": "function"
    },
    {
      "inputs": [
        {
          "internalType": "bytes32",
          "name": "role",
          "type": "bytes32"
        }
      ],
      "name": "getRoleAdmin",
      "outputs": [
        {
          "internalType": "bytes32",
          "name": "",
          "type": "bytes32"
        }
      ],
      "stateMutability": "view",
      "type": "function"
    },
    {
      "inputs": [
        {
          "internalType": "bytes32",
          "name": "role",
          "type": "bytes32"
        },
        {
          "internalType": "uint256",
          "name": "index",
          "type": "uint256"
        }
      ],
      "name": "getRoleMember",
      "outputs": [
        {
          "internalType": "address",
          "name": "",
          "type": "address"
        }
      ],
      "stateMutability": "view",
      "type": "function"
    },
    {
      "inputs": [
        {
          "internalType": "bytes32",
          "name": "role",
          "type": "bytes32"
        }
      ],
      "name": "getRoleMemberCount",
      "outputs": [
        {
          "internalType": "uint256",
          "name": "",
          "type": "uint256"
        }
      ],
      "stateMutability": "view",
      "type": "function"
    },
    {
      "inputs": [
        {
          "internalType": "bytes32",
          "name": "role",
          "type": "bytes32"
        },
        {
          "internalType": "address",
          "name": "account",
          "type": "address"
        }
      ],
      "name": "grantRole",
      "outputs": [],
      "stateMutability": "nonpayable",
      "type": "function"
    },
    {
      "inputs": [
        {
          "internalType": "bytes32",
          "name": "role",
          "type": "bytes32"
        },
        {
          "internalType": "address",
          "name": "account",
          "type": "address"
        }
      ],
      "name": "hasRole",
      "outputs": [
        {
          "internalType": "bool",
          "name": "",
          "type": "bool"
        }
      ],
      "stateMutability": "view",
      "type": "function"
    },
    {
      "inputs": [
        {
          "internalType": "address",
          "name": "_admin",
          "type": "address"
        }
      ],
      "name": "initialize",
      "outputs": [],
      "stateMutability": "nonpayable",
      "type": "function"
    },
    {
      "inputs": [
        {
          "internalType": "bytes32",
          "name": "role",
          "type": "bytes32"
        },
        {
          "internalType": "address",
          "name": "account",
          "type": "address"
        }
      ],
      "name": "renounceRole",
      "outputs": [],
      "stateMutability": "nonpayable",
      "type": "function"
    },
    {
      "inputs": [
        {
          "internalType": "bytes32",
          "name": "role",
          "type": "bytes32"
        },
        {
          "internalType": "address",
          "name": "account",
          "type": "address"
        }
      ],
      "name": "revokeRole",
      "outputs": [],
      "stateMutability": "nonpayable",
      "type": "function"
    },
    {
      "inputs": [
        {
          "internalType": "bytes4",
          "name": "interfaceId",
          "type": "bytes4"
        }
      ],
      "name": "supportsInterface",
      "outputs": [
        {
          "internalType": "bool",
          "name": "",
          "type": "bool"
        }
      ],
      "stateMutability": "view",
      "type": "function"
    }
  ],
  "bytecode": "0x608060405234801561001057600080fd5b5061165f806100206000396000f3fe608060405234801561001057600080fd5b506004361061009e5760003560e01c806391d148541161006657806391d148541461016b578063a217fddf1461019b578063c4d66de8146101b9578063ca15c873146101d5578063d547741f146102055761009e565b806301ffc9a7146100a3578063248a9ca3146100d35780632f2ff15d1461010357806336568abe1461011f5780639010d07c1461013b575b600080fd5b6100bd60048036038101906100b89190610e81565b610221565b6040516100ca9190610ec9565b60405180910390f35b6100ed60048036038101906100e89190610f1a565b61029b565b6040516100fa9190610f56565b60405180910390f35b61011d60048036038101906101189190610fcf565b6102bb565b005b61013960048036038101906101349190610fcf565b6102e4565b005b61015560048036038101906101509190611045565b610367565b6040516101629190611094565b60405180910390f35b61018560048036038101906101809190610fcf565b610396565b6040516101929190610ec9565b60405180910390f35b6101a3610401565b6040516101b09190610f56565b60405180910390f35b6101d360048036038101906101ce91906110af565b610408565b005b6101ef60048036038101906101ea9190610f1a565b610534565b6040516101fc91906110eb565b60405180910390f35b61021f600480360381019061021a9190610fcf565b610558565b005b60007f5a05180f000000000000000000000000000000000000000000000000000000007bffffffffffffffffffffffffffffffffffffffffffffffffffffffff1916827bffffffffffffffffffffffffffffffffffffffffffffffffffffffff19161480610294575061029382610581565b5b9050919050565b600060016000838152602001908152602001600020600101549050919050565b6102c48261029b565b6102d5816102d06105fb565b610603565b6102df83836106a0565b505050565b6102ec6105fb565b73ffffffffffffffffffffffffffffffffffffffff168173ffffffffffffffffffffffffffffffffffffffff1614610359576040517f08c379a000000000000000000000000000000000000000000000000000000000815260040161035090611189565b60405180910390fd5b61036382826106d4565b5050565b600061038e826002600086815260200190815260200160002061070890919063ffffffff16565b905092915050565b60006001600084815260200190815260200160002060000160008373ffffffffffffffffffffffffffffffffffffffff1673ffffffffffffffffffffffffffffffffffffffff16815260200190815260200160002060009054906101000a900460ff16905092915050565b6000801b81565b600060019054906101000a900460ff166104305760008054906101000a900460ff1615610439565b610438610722565b5b610478576040517f08c379a000000000000000000000000000000000000000000000000000000000815260040161046f9061121b565b60405180910390fd5b60008060019054906101000a900460ff1615905080156104c8576001600060016101000a81548160ff02191690831515021790555060016000806101000a81548160ff0219169083151502179055505b600073ffffffffffffffffffffffffffffffffffffffff163373ffffffffffffffffffffffffffffffffffffffff16141561050257600080fd5b61050f6000801b83610733565b80156105305760008060016101000a81548160ff0219169083151502179055505b5050565b600061055160026000848152602001908152602001600020610741565b9050919050565b6105618261029b565b6105728161056d6105fb565b610603565b61057c83836106d4565b505050565b60007f7965db0b000000000000000000000000000000000000000000000000000000007bffffffffffffffffffffffffffffffffffffffffffffffffffffffff1916827bffffffffffffffffffffffffffffffffffffffffffffffffffffffff191614806105f457506105f382610756565b5b9050919050565b600033905090565b61060d8282610396565b61069c576106328173ffffffffffffffffffffffffffffffffffffffff1660146107c0565b6106408360001c60206107c0565b60405160200161065192919061134d565b6040516020818303038152906040526040517f08c379a000000000000000000000000000000000000000000000000000000000815260040161069391906113d1565b60405180910390fd5b5050565b6106aa82826109fc565b6106cf8160026000858152602001908152602001600020610adc90919063ffffffff16565b505050565b6106de8282610b0c565b6107038160026000858152602001908152602001600020610bee90919063ffffffff16565b505050565b60006107178360000183610c1e565b60001c905092915050565b600061072d30610c49565b15905090565b61073d82826106a0565b5050565b600061074f82600001610c6c565b9050919050565b60007f01ffc9a7000000000000000000000000000000000000000000000000000000007bffffffffffffffffffffffffffffffffffffffffffffffffffffffff1916827bffffffffffffffffffffffffffffffffffffffffffffffffffffffff1916149050919050565b6060600060028360026107d39190611422565b6107dd919061147c565b67ffffffffffffffff8111156107f6576107f56114d2565b5b6040519080825280601f01601f1916602001820160405280156108285781602001600182028036833780820191505090505b5090507f3000000000000000000000000000000000000000000000000000000000000000816000815181106108605761085f611501565b5b60200101907effffffffffffffffffffffffffffffffffffffffffffffffffffffffffffff1916908160001a9053507f7800000000000000000000000000000000000000000000000000000000000000816001815181106108c4576108c3611501565b5b60200101907effffffffffffffffffffffffffffffffffffffffffffffffffffffffffffff1916908160001a905350600060018460026109049190611422565b61090e919061147c565b90505b60018111156109ae577f3031323334353637383961626364656600000000000000000000000000000000600f8616601081106109505761094f611501565b5b1a60f81b82828151811061096757610966611501565b5b60200101907effffffffffffffffffffffffffffffffffffffffffffffffffffffffffffff1916908160001a905350600485901c9450806109a790611530565b9050610911565b50600084146109f2576040517f08c379a00000000000000000000000000000000000000000000000000000000081526004016109e9906115a6565b60405180910390fd5b8091505092915050565b610a068282610396565b610ad857600180600084815260200190815260200160002060000160008373ffffffffffffffffffffffffffffffffffffffff1673ffffffffffffffffffffffffffffffffffffffff16815260200190815260200160002060006101000a81548160ff021916908315150217905550610a7d6105fb565b73ffffffffffffffffffffffffffffffffffffffff168173ffffffffffffffffffffffffffffffffffffffff16837f2f8788117e7eff1d82e926ec794901d17c78024a50270940304540a733656f0d60405160405180910390a45b5050565b6000610b04836000018373ffffffffffffffffffffffffffffffffffffffff1660001b610c7d565b905092915050565b610b168282610396565b15610bea5760006001600084815260200190815260200160002060000160008373ffffffffffffffffffffffffffffffffffffffff1673ffffffffffffffffffffffffffffffffffffffff16815260200190815260200160002060006101000a81548160ff021916908315150217905550610b8f6105fb565b73ffffffffffffffffffffffffffffffffffffffff168173ffffffffffffffffffffffffffffffffffffffff16837ff6391f5c32d9c69d2a47ea670b442974b53935d1edc7fd64eb21e047a839171b60405160405180910390a45b5050565b6000610c16836000018373ffffffffffffffffffffffffffffffffffffffff1660001b610ced565b905092915050565b6000826000018281548110610c3657610c35611501565b5b9060005260206000200154905092915050565b6000808273ffffffffffffffffffffffffffffffffffffffff163b119050919050565b600081600001805490509050919050565b6000610c898383610e01565b610ce2578260000182908060018154018082558091505060019003906000526020600020016000909190919091505582600001805490508360010160008481526020019081526020016000208190555060019050610ce7565b600090505b92915050565b60008083600101600084815260200190815260200160002054905060008114610df5576000600182610d1f91906115c6565b9050600060018660000180549050610d3791906115c6565b9050818114610da6576000866000018281548110610d5857610d57611501565b5b9060005260206000200154905080876000018481548110610d7c57610d7b611501565b5b90600052602060002001819055508387600101600083815260200190815260200160002081905550505b85600001805480610dba57610db96115fa565b5b600190038181906000526020600020016000905590558560010160008681526020019081526020016000206000905560019350505050610dfb565b60009150505b92915050565b600080836001016000848152602001908152602001600020541415905092915050565b600080fd5b60007fffffffff0000000000000000000000000000000000000000000000000000000082169050919050565b610e5e81610e29565b8114610e6957600080fd5b50565b600081359050610e7b81610e55565b92915050565b600060208284031215610e9757610e96610e24565b5b6000610ea584828501610e6c565b91505092915050565b60008115159050919050565b610ec381610eae565b82525050565b6000602082019050610ede6000830184610eba565b92915050565b6000819050919050565b610ef781610ee4565b8114610f0257600080fd5b50565b600081359050610f1481610eee565b92915050565b600060208284031215610f3057610f2f610e24565b5b6000610f3e84828501610f05565b91505092915050565b610f5081610ee4565b82525050565b6000602082019050610f6b6000830184610f47565b92915050565b600073ffffffffffffffffffffffffffffffffffffffff82169050919050565b6000610f9c82610f71565b9050919050565b610fac81610f91565b8114610fb757600080fd5b50565b600081359050610fc981610fa3565b92915050565b60008060408385031215610fe657610fe5610e24565b5b6000610ff485828601610f05565b925050602061100585828601610fba565b9150509250929050565b6000819050919050565b6110228161100f565b811461102d57600080fd5b50565b60008135905061103f81611019565b92915050565b6000806040838503121561105c5761105b610e24565b5b600061106a85828601610f05565b925050602061107b85828601611030565b9150509250929050565b61108e81610f91565b82525050565b60006020820190506110a96000830184611085565b92915050565b6000602082840312156110c5576110c4610e24565b5b60006110d384828501610fba565b91505092915050565b6110e58161100f565b82525050565b600060208201905061110060008301846110dc565b92915050565b600082825260208201905092915050565b7f416363657373436f6e74726f6c3a2063616e206f6e6c792072656e6f756e636560008201527f20726f6c657320666f722073656c660000000000000000000000000000000000602082015250565b6000611173602f83611106565b915061117e82611117565b604082019050919050565b600060208201905081810360008301526111a281611166565b9050919050565b7f496e697469616c697a61626c653a20636f6e747261637420697320616c72656160008201527f647920696e697469616c697a6564000000000000000000000000000000000000602082015250565b6000611205602e83611106565b9150611210826111a9565b604082019050919050565b60006020820190508181036000830152611234816111f8565b9050919050565b600081905092915050565b7f416363657373436f6e74726f6c3a206163636f756e7420000000000000000000600082015250565b600061127c60178361123b565b915061128782611246565b601782019050919050565b600081519050919050565b60005b838110156112bb5780820151818401526020810190506112a0565b838111156112ca576000848401525b50505050565b60006112db82611292565b6112e5818561123b565b93506112f581856020860161129d565b80840191505092915050565b7f206973206d697373696e6720726f6c6520000000000000000000000000000000600082015250565b600061133760118361123b565b915061134282611301565b601182019050919050565b60006113588261126f565b915061136482856112d0565b915061136f8261132a565b915061137b82846112d0565b91508190509392505050565b6000601f19601f8301169050919050565b60006113a382611292565b6113ad8185611106565b93506113bd81856020860161129d565b6113c681611387565b840191505092915050565b600060208201905081810360008301526113eb8184611398565b905092915050565b7f4e487b7100000000000000000000000000000000000000000000000000000000600052601160045260246000fd5b600061142d8261100f565b91506114388361100f565b9250817fffffffffffffffffffffffffffffffffffffffffffffffffffffffffffffffff0483118215151615611471576114706113f3565b5b828202905092915050565b60006114878261100f565b91506114928361100f565b9250827fffffffffffffffffffffffffffffffffffffffffffffffffffffffffffffffff038211156114c7576114c66113f3565b5b828201905092915050565b7f4e487b7100000000000000000000000000000000000000000000000000000000600052604160045260246000fd5b7f4e487b7100000000000000000000000000000000000000000000000000000000600052603260045260246000fd5b600061153b8261100f565b9150600082141561154f5761154e6113f3565b5b600182039050919050565b7f537472696e67733a20686578206c656e67746820696e73756666696369656e74600082015250565b6000611590602083611106565b915061159b8261155a565b602082019050919050565b600060208201905081810360008301526115bf81611583565b9050919050565b60006115d18261100f565b91506115dc8361100f565b9250828210156115ef576115ee6113f3565b5b828203905092915050565b7f4e487b7100000000000000000000000000000000000000000000000000000000600052603160045260246000fdfea2646970667358221220f2b99691698cf51504bdca09ff2aa93d8cc0cd4fcbd48dc7a01de3f3f7c9fe3264736f6c63430008090033",
  "linkReferences": {},
  "deployedLinkReferences": {}
}